:100000000C9434000C9446000C9446000C9446006A
:100010000C9446000C9446000C9446000C94460048
:100020000C9446000C9446000C9446000C94460038
:100030000C9446000C9446000C9446000C94460028
:100040000C9446000C9446000C94C6020C94460096
:100050000C9446000C9446000C9446000C94460008
:100060000C9446000C94460011241FBECFEFD8E03C
:10007000DEBFCDBF11E0A0E0B1E001C01D92A4320F
:10008000B107E1F70E9448000C9482090C9400002B
:10009000CF93DF930E94D700C0E9D1E080E20E94B5
:1000A000C0080E941B0424EC39E0CE010197F1F74F
:1000B00021503040D1F7F2CFCF93DF93482FEB019F
:1000C000E8A1F9A1CF01019660E270E00E944D091C
:1000D0009C018AA19BA18217930729F0EC0FFD1FB9
:1000E000408339A328A3DF91CF9108958091200107
:1000F0009091210180962091220130912301821B51
:10010000930B60E270E00E944D0908954091220136
:10011000509123018091200190912101841795072E
:1001200089F0FA01E050FF4F2081CA01019660E298
:1001300070E00E944D09909323018093220130E0EA
:10014000C90108952FEF3FEFC90108958091C000C4
:1001500087FFFCCF8091C60008958091C00085FF85
:10016000FCCF8DE08093C6008091C00085FFFCCF5E
:100170008AE08093C6000895982F8091C00085FF83
:10018000FCCF9093C6000895DC01EC91EE2371F052
:1001900090E08091C00085FFFCCFE093C6009F5F98
:1001A000FD01E90FF11DE081EE2399F7089510920A
:1001B000C50080E18093C400E1ECF0E080818068BC
:1001C00080838081806180838081886080838EE0ED
:1001D0008093C20078940895EF92FF920F931F933B
:1001E000DF93CF93CDB7DEB7A0970FB6F894DEBFFD
:1001F0000FBECDBF9C010097B1F100E010E07E0181
:100200000894E11CF11CF701E00FF11FC9016AE03D
:1002100070E00E94390980830F5F1F4FC9016AE0B7
:1002200070E00E9439099B016115710561F70115A4
:10023000110501F1F8013197EE0DFF1D80818A3023
:1002400078F4982F905D8091C00085FFFCCF90934B
:10025000C6003197EC17FD0769F080818A3088F37A
:10026000982F995CF0CF8091C00085FFFCCF80E390
:100270008093C600A0960FB6F894DEBF0FBECDBF28
:10028000CF91DF911F910F91FF90EF900895EF9222
:10029000FF920F931F93DF93CF93CDB7DEB7A09755
:1002A0000FB6F894DEBF0FBECDBF9C010097B1F131
:1002B00000E010E07E010894E11CF11CF701E00F62
:1002C000F11FC9016AE070E00E94390980830F5F65
:1002D0001F4FC9016AE070E00E9439099B01611556
:1002E000710561F70115110501F1F8013197EE0D66
:1002F000FF1D80818A3078F4982F905D8091C00036
:1003000085FFFCCF9093C6003197EC17FD0769F08D
:1003100080818A3088F3982F995CF0CF8091C0005B
:1003200085FFFCCF80E38093C600A0960FB6F894BB
:10033000DEBF0FBECDBFCF91DF911F910F91FF9018
:10034000EF9008958F929F92AF92BF92CF92DF92DB
:10035000EF92FF920F931F93DF93CF93CDB7DEB74A
:10036000A0970FB6F894DEBF0FBECDBF6B017C0126
:10037000611571058105910509F443C0AA24BB24C8
:100380004E010894811C911C84010A0D1B1DC7019C
:10039000B6012AE030E040E050E00E946009F80138
:1003A00060830894A11CB11CC701B6012AE030E0AB
:1003B00040E050E00E946009C901DA016C017D0152
:1003C000C114D104E104F104F9F6A114B10401F15E
:1003D000F5013197E80DF91D80818A3078F4982F66
:1003E000905D8091C00085FFFCCF9093C60031974F
:1003F000EC17FD0769F080818A3088F3982F995CAB
:10040000F0CF8091C00085FFFCCF80E38093C600D1
:10041000A0960FB6F894DEBF0FBECDBFCF91DF918F
:100420001F910F91FF90EF90DF90CF90BF90AF9012
:100430009F908F900895982F8091C00085FFFCCFEA
:100440009093C6000895CF92DF92EF92FF920F93A0
:100450001F93DF93CF930F92CDB7DEB7EE24FF2427
:10046000870119820E947600882361F10E9486002C
:100470009C018D32910539F18D30910539F18A3029
:10048000910521F18034910509F180EDC82E8FEF9F
:10049000D82EC20ED31EFAE0CF16D10418F7C80129
:1004A000B7012AE030E040E050E00E941A097601EE
:1004B00000E010E0E60EF71E081F191F0E947600EC
:1004C0008823A1F6FFCF81E08983CCCFA8019701D3
:1004D000E981E13061F0B901CA010F90CF91DF915C
:1004E0001F910F91FF90EF90DF90CF90089550955E
:1004F0004095309521953F4F4F4F5F4FECCFEF9296
:10050000FF920F931F93CF93DF93EE24FF24870175
:100510000E947600882331F10E9486008D3091057B
:10052000C1F08A309105A9F0EC01E097CA30D105FD
:1005300078F7C801B7012AE030E040E050E00E94BF
:100540001A097E0100E010E0E60EF71E081F191FD1
:10055000DFCFB701C801DF91CF911F910F91FF90BD
:10056000EF900895FFCFDC01EC91EE2371F090E065
:100570008091C00085FFFCCFE093C6009F5FFD0126
:10058000E90FF11DE081EE2399F708951F920F9274
:100590000FB60F9211242F933F934F935F936F9356
:1005A0007F938F939F93AF93BF93EF93FF9340916C
:1005B000C600E0912001F0912101CF01019660E297
:1005C00070E00E944D099C018091220190912301CD
:1005D0002817390739F0E050FF4F4083309321014D
:1005E00020932001FF91EF91BF91AF919F918F9147
:1005F0007F916F915F914F913F912F910F900FBE1F
:100600000F901F9018958091C00085FFFCCF8DE062
:100610008093C6008091C00085FFFCCF8AE0809364
:10062000C6000895982F8091C00085FFFCCF90935D
:10063000C6008091C00085FFFCCF8DE08093C6008E
:100640008091C00085FFFCCF8AE08093C6000895AA
:10065000DC01EC91EE2371F090E08091C00085FF09
:10066000FCCFE093C6009F5FFD01E90FF11DE08123
:10067000EE2399F78091C00085FFFCCF8DE0809339
:10068000C6008091C00085FFFCCF8AE08093C60041
:100690000895EF92FF920F931F93DF93CF93CDB7FF
:1006A000DEB7A0970FB6F894DEBF0FBECDBF9C019A
:1006B0000097B1F100E010E07E010894E11CF11C0C
:1006C000F701E00FF11FC9016AE070E00E943909EB
:1006D00080830F5F1F4FC9016AE070E00E943909F3
:1006E0009B016115710561F70115110501F1F80113
:1006F0003197EE0DFF1D80818A3078F4982F905D40
:100700008091C00085FFFCCF9093C6003197EC1715
:10071000FD0769F080818A3088F3982F995CF0CFCB
:100720008091C00085FFFCCF80E38093C60080915C
:10073000C00085FFFCCF8DE08093C6008091C00093
:1007400085FFFCCF8AE08093C600A0960FB6F89490
:10075000DEBF0FBECDBFCF91DF911F910F91FF90F4
:10076000EF900895EF92FF920F931F93DF93CF9333
:10077000CDB7DEB7A0970FB6F894DEBF0FBECDBFE2
:100780009C0197FD4DC021153105B1F100E010E04D
:100790007E010894E11CF11CF701E00FF11FC90173
:1007A0006AE070E00E94390980830F5F1F4FC90122
:1007B0006AE070E00E9439099B016115710561F7DB
:1007C0000115110501F1F8013197EE0DFF1D808132
:1007D0008A3078F4982F905D8091C00085FFFCCF1F
:1007E0009093C6003197EC17FD0769F080818A303D
:1007F00088F3982F995CF0CF8091C00085FFFCCFE3
:1008000080E38093C600A0960FB6F894DEBF0FBEBB
:10081000CDBFCF91DF911F910F91FF90EF90089581
:100820008091C00085FFFCCF8DE28093C60030959B
:1008300021953F4FA8CF8F929F92AF92BF92CF92B8
:10084000DF92EF92FF920F931F93DF93CF93CDB779
:10085000DEB7A0970FB6F894DEBF0FBECDBF9B01E9
:10086000AC0197FD73C069017A012115310541057D
:10087000510509F45FC0AA24BB244E010894811CD1
:10088000911C84010A0D1B1DC701B6012AE030E04E
:1008900040E050E00E946009F80160830894A11CC8
:1008A000B11CC701B6012AE030E040E050E00E94F0
:1008B0006009C901DA016C017D01C114D104E104B0
:1008C000F104F9F6A114B104A1F0F5013197E80D96
:1008D000F91D80818A3008F048C0982F905D809182
:1008E000C00085FFFCCF9093C6003197EC17FD0741
:1008F00081F78091C00085FFFCCF8DE08093C6001A
:100900008091C00085FFFCCF8AE08093C600A0964E
:100910000FB6F894DEBF0FBECDBFCF91DF911F9110
:100920000F91FF90EF90DF90CF90BF90AF909F908E
:100930008F9008958091C00085FFFCCF80E3809365
:10094000C6008091C00085FFD4CFD7CF8091C00072
:1009500085FFFCCF8DE28093C60050954095309581
:1009600021953F4F4F4F5F4F7ECF982F995CB7CF68
:10097000EF92FF920F931F93DF93CF93CDB7DEB724
:10098000A0970FB6F894DEBF0FBECDBF9C010097B5
:10099000B1F100E010E07E010894E11CF11CF701C8
:1009A000E00FF11FC9016AE070E00E9439098083FD
:1009B0000F5F1F4FC9016AE070E00E9439099B0177
:1009C0006115710561F70115110501F1F801319704
:1009D000EE0DFF1D80818A3078F4982F905D809114
:1009E000C00085FFFCCF9093C6003197EC17FD0740
:1009F00069F080818A3088F3982F995CF0CF8091DC
:100A0000C00085FFFCCF80E38093C600A0960FB6A0
:100A1000F894DEBF0FBECDBFCF91DF911F910F9134
:100A2000FF90EF900895EF92FF920F931F93DF9343
:100A3000CF93CDB7DEB7A0970FB6F894DEBF0FBE49
:100A4000CDBF9C0197FD5BC02115310509F44BC05A
:100A500000E010E07E010894E11CF11CF701E00FBA
:100A6000F11FC9016AE070E00E94390980830F5FBD
:100A70001F4FC9016AE070E00E9439099B016115AE
:100A8000710561F70115110599F0F8013197EE0D27
:100A9000FF1D80818A30F0F5982F905D8091C00015
:100AA00085FFFCCF9093C6003197EC17FD0789F7BF
:100AB0008091C00085FFFCCF8DE08093C6008091BF
:100AC000C00085FFFCCF8AE08093C600A0960FB6D9
:100AD000F894DEBF0FBECDBFCF91DF911F910F9174
:100AE000FF90EF9008958091C00085FFFCCF80E3D8
:100AF0008093C6008091C00085FFDACFDDCF809162
:100B0000C00085FFFCCF8DE28093C6003095219513
:100B10003F4F9ACF982F995CC1CFEF92FF920F93DE
:100B20001F93DF93CF93CDB7DEB7A0970FB6F8949E
:100B3000DEBF0FBECDBF9C010097B1F100E010E019
:100B40007E010894E11CF11CF701E00FF11FC901BF
:100B50006AE070E00E94390980830F5F1F4FC9016E
:100B60006AE070E00E9439099B016115710561F727
:100B70000115110501F1F8013197EE0DFF1D80817E
:100B80008A3078F4982F905D8091C00085FFFCCF6B
:100B90009093C6003197EC17FD0769F080818A3089
:100BA00088F3982F995CF0CF8091C00085FFFCCF2F
:100BB00080E38093C600A0960FB6F894DEBF0FBE08
:100BC000CDBFCF91DF911F910F91FF90EF900895CE
:100BD000EF92FF920F931F93DF93CF93CDB7DEB7C2
:100BE000A0970FB6F894DEBF0FBECDBF9C01009753
:100BF000B1F100E010E07E010894E11CF11CF70166
:100C0000E00FF11FC9016AE070E00E94390980839A
:100C10000F5F1F4FC9016AE070E00E9439099B0114
:100C20006115710561F70115110501F1F8013197A1
:100C3000EE0DFF1D80818A3078F4982F905D8091B1
:100C4000C00085FFFCCF9093C6003197EC17FD07DD
:100C500069F080818A3088F3982F995CF0CF809179
:100C6000C00085FFFCCF80E38093C6008091C00068
:100C700085FFFCCF8DE08093C6008091C00085FF8A
:100C8000FCCF8AE08093C600A0960FB6F894DEBF32
:100C90000FBECDBFCF91DF911F910F91FF90EF90CD
:100CA0000895EF92FF920F931F93DF93CF93CDB7E9
:100CB000DEB7A0970FB6F894DEBF0FBECDBF9C0184
:100CC00097FD4DC021153105B1F100E010E07E0126
:100CD0000894E11CF11CF701E00FF11FC9016AE063
:100CE00070E00E94390980830F5F1F4FC9016AE0DD
:100CF00070E00E9439099B016115710561F70115CA
:100D0000110501F1F8013197EE0DFF1D80818A3048
:100D100078F4982F905D8091C00085FFFCCF909370
:100D2000C6003197EC17FD0769F080818A3088F39F
:100D3000982F995CF0CF8091C00085FFFCCF80E3B5
:100D40008093C600A0960FB6F894DEBF0FBECDBF4D
:100D5000CF91DF911F910F91FF90EF9008958091B7
:100D6000C00085FFFCCF8DE28093C60030952195B1
:100D70003F4FA8CFEF92FF920F931F93DF93CF9334
:100D8000CDB7DEB7A0970FB6F894DEBF0FBECDBFCC
:100D90009C0197FD5BC02115310509F44BC000E0B3
:100DA00010E07E010894E11CF11CF701E00FF11F37
:100DB000C9016AE070E00E94390980830F5F1F4F0C
:100DC000C9016AE070E00E9439099B016115710553
:100DD00061F70115110599F0F8013197EE0DFF1D2E
:100DE00080818A30F0F5982F905D8091C00085FF5A
:100DF000FCCF9093C6003197EC17FD0789F78091DF
:100E0000C00085FFFCCF8DE08093C6008091C000BC
:100E100085FFFCCF8AE08093C600A0960FB6F894B9
:100E2000DEBF0FBECDBFCF91DF911F910F91FF901D
:100E3000EF9008958091C00085FFFCCF80E3809300
:100E4000C6008091C00085FFDACFDDCF8091C00061
:100E500085FFFCCF8DE28093C600309521953F4FF2
:100E60009ACF982F995CC1CF8F929F92AF92BF92E9
:100E7000CF92DF92EF92FF920F931F93DF93CF9366
:100E8000CDB7DEB7A0970FB6F894DEBF0FBECDBFCB
:100E90006B017C01611571058105910509F443C061
:100EA000AA24BB244E010894811C911C84010A0DC4
:100EB0001B1DC701B6012AE030E040E050E00E946F
:100EC0006009F80160830894A11CB11CC701B60138
:100ED0002AE030E040E050E00E946009C901DA01F8
:100EE0006C017D01C114D104E104F104F9F6A114EF
:100EF000B10401F1F5013197E80DF91D80818A30C7
:100F000078F4982F905D8091C00085FFFCCF90937E
:100F1000C6003197EC17FD0769F080818A3088F3AD
:100F2000982F995CF0CF8091C00085FFFCCF80E3C3
:100F30008093C600A0960FB6F894DEBF0FBECDBF5B
:100F4000CF91DF911F910F91FF90EF90DF90CF90A5
:100F5000BF90AF909F908F9008958F929F92AF9285
:100F6000BF92CF92DF92EF92FF920F931F93DF9386
:100F7000CF93CDB7DEB7A0970FB6F894DEBF0FBE04
:100F8000CDBF6B017C01611571058105910509F4E7
:100F900043C0AA24BB244E010894811C911C8401E7
:100FA0000A0D1B1DC701B6012AE030E040E050E009
:100FB0000E946009F80160830894A11CB11CC7015C
:100FC000B6012AE030E040E050E00E946009C9012B
:100FD000DA016C017D01C114D104E104F104F9F6D8
:100FE000A114B10401F1F5013197E80DF91D8081DB
:100FF0008A3078F4982F905D8091C00085FFFCCFF7
:101000009093C6003197EC17FD0769F080818A3014
:1010100088F3982F995CF0CF8091C00085FFFCCFBA
:1010200080E38093C6008091C00085FFFCCF8DE0F7
:101030008093C6008091C00085FFFCCF8AE080933A
:10104000C600A0960FB6F894DEBF0FBECDBFCF91FD
:10105000DF911F910F91FF90EF90DF90CF90BF90A5
:10106000AF909F908F9008958F929F92AF92BF9272
:10107000CF92DF92EF92FF920F931F93DF93CF9364
:10108000CDB7DEB7A0970FB6F894DEBF0FBECDBFC9
:101090009B01AC0197FD65C069017A0121153105FD
:1010A0004105510509F443C0AA24BB244E0108940C
:1010B000811C911C84010A0D1B1DC701B6012AE089
:1010C00030E040E050E00E946009F801608308943D
:1010D000A11CB11CC701B6012AE030E040E050E09D
:1010E0000E946009C901DA016C017D01C114D104BB
:1010F000E104F104F9F6A114B10401F1F50131970D
:10110000E80DF91D80818A3078F4982F905D8091E8
:10111000C00085FFFCCF9093C6003197EC17FD0708
:1011200069F080818A3088F3982F995CF0CF8091A4
:10113000C00085FFFCCF80E38093C600A0960FB669
:10114000F894DEBF0FBECDBFCF91DF911F910F91FD
:10115000FF90EF90DF90CF90BF90AF909F908F90D7
:1011600008958091C00085FFFCCF8DE28093C6007A
:1011700050954095309521953F4F4F4F5F4F8CCF05
:10118000682F84B1862B84B985B1962F90958923D9
:1011900085B98AE08A95F1F785B1862B85B98AE110
:1011A0008A95F1F785B1892385B984B1982394B9DB
:1011B00020E030E040E050E00CC02E3E82E03807F6
:1011C00080E0480780E05807C9F02F5F3F4F4F4F3E
:1011D0005F4F83B18623681781F304C02F5F3F4FB1
:1011E0004F4F5F4F83B18623681779F02E3E82E020
:1011F000380780E0480780E0580781F720E030E0BA
:1012000040E050E0B901CA01089583B18623681710
:10121000C9F72F5F3F4F4F4F5F4F83B1862368174A
:1012200089F72F5F3F4F4F4F5F4F83B1862368177A
:1012300081F3E8CF629FD001739FF001829FE00DA0
:10124000F11D649FE00DF11D929FF00D839FF00D45
:10125000749FF00D659FF00D9927729FB00DE11DF1
:10126000F91F639FB00DE11DF91FBD01CF011124CE
:101270000895AA1BBB1B51E107C0AA1FBB1FA617DD
:10128000B70710F0A61BB70B881F991F5A95A9F72F
:1012900080959095BC01CD01089597FB092E0726F6
:1012A0000AD077FD04D0E5DF06D000201AF470954F
:1012B00061957F4F0895F6F7909581959F4F08951A
:1012C000A1E21A2EAA1BBB1BFD010DC0AA1FBB1F4A
:1012D000EE1FFF1FA217B307E407F50720F0A21BBC
:1012E000B30BE40BF50B661F771F881F991F1A9429
:1012F00069F760957095809590959B01AC01BD0153
:08130000CF010895F894FFCF1E
:00000001FF
