:100000000C9434000C9446000C9446000C9446006A
:100010000C9446000C9446000C9446000C94460048
:100020000C9446000C9446000C9446000C94460038
:100030000C9446000C9446000C9446000C94460028
:100040000C9446000C9446000C94B3020C944600A9
:100050000C9446000C9446000C9446000C94460008
:100060000C9446000C94460011241FBECFEFD8E03C
:10007000DEBFCDBF11E0A0E0B1E001C01D92A4320F
:10008000B107E1F70E9448000C945A090C94000053
:10009000FFCFCF93DF93482FEB01E8A1F9A1CF0168
:1000A000019660E270E00E9425099C018AA19BA153
:1000B0008217930729F0EC0FFD1F408339A328A373
:1000C000DF91CF9108958091200190912101809638
:1000D0002091220130912301821B930B60E270E09A
:1000E0000E94250908954091220150912301809199
:1000F0002001909121018417950789F0FA01E050C1
:10010000FF4F2081CA01019660E270E00E9425093C
:10011000909323018093220130E0C90108952FEFCD
:100120003FEFC90108958091C00087FFFCCF809107
:10013000C60008958091C00085FFFCCF8DE08093BC
:10014000C6008091C00085FFFCCF8AE08093C60086
:100150000895982F8091C00085FFFCCF9093C60032
:100160000895DC01EC91EE2371F090E08091C000E5
:1001700085FFFCCFE093C6009F5FFD01E90FF11DF5
:10018000E081EE2399F708951092C50080E48093F2
:10019000C400E1ECF0E08081806880838081806130
:1001A00080838081886080838EE08093C200789411
:1001B0000895EF92FF920F931F93DF93CF93CDB7E4
:1001C000DEB7A0970FB6F894DEBF0FBECDBF9C017F
:1001D0000097B1F100E010E07E010894E11CF11CF1
:1001E000F701E00FF11FC9016AE070E00E941109F8
:1001F00080830F5F1F4FC9016AE070E00E94110900
:100200009B016115710561F70115110501F1F801F7
:100210003197EE0DFF1D80818A3078F4982F905D24
:100220008091C00085FFFCCF9093C6003197EC17FA
:10023000FD0769F080818A3088F3982F995CF0CFB0
:100240008091C00085FFFCCF80E38093C600A0961C
:100250000FB6F894DEBF0FBECDBFCF91DF911F91D7
:100260000F91FF90EF900895EF92FF920F931F93DD
:10027000DF93CF93CDB7DEB7A0970FB6F894DEBF6C
:100280000FBECDBF9C010097B1F100E010E07E01F0
:100290000894E11CF11CF701E00FF11FC9016AE0AD
:1002A00070E00E94110980830F5F1F4FC9016AE04F
:1002B00070E00E9411099B016115710561F701153C
:1002C000110501F1F8013197EE0DFF1D80818A3093
:1002D00078F4982F905D8091C00085FFFCCF9093BB
:1002E000C6003197EC17FD0769F080818A3088F3EA
:1002F000982F995CF0CF8091C00085FFFCCF80E300
:100300008093C600A0960FB6F894DEBF0FBECDBF97
:10031000CF91DF911F910F91FF90EF9008958F92F1
:100320009F92AF92BF92CF92DF92EF92FF920F9384
:100330001F93DF93CF93CDB7DEB7A0970FB6F89496
:10034000DEBF0FBECDBF6B017C016115710581055C
:10035000910509F443C0AA24BB244E010894811CD2
:10036000911C84010A0D1B1DC701B6012AE030E073
:1003700040E050E00E943809F80160830894A11C15
:10038000B11CC701B6012AE030E040E050E00E9415
:100390003809C901DA016C017D01C114D104E104FD
:1003A000F104F9F6A114B10401F1F5013197E80D5A
:1003B000F91D80818A3078F4982F905D8091C0007B
:1003C00085FFFCCF9093C6003197EC17FD0769F0CD
:1003D00080818A3088F3982F995CF0CF8091C0009B
:1003E00085FFFCCF80E38093C600A0960FB6F894FB
:1003F000DEBF0FBECDBFCF91DF911F910F91FF9058
:10040000EF90DF90CF90BF90AF909F908F90089526
:10041000982F8091C00085FFFCCF9093C60008956F
:10042000CF92DF92EF92FF920F931F93DF93CF93C0
:100430000F92CDB7DEB7EE24FF24870119820E9408
:100440006300882361F10E9473009C018D32910545
:1004500039F18D30910539F18A30910521F18034DF
:10046000910509F180EDC82E8FEFD82EC20ED31E54
:10047000FAE0CF16D10418F7C801B7012AE030E03E
:1004800040E050E00E94F208760100E010E0E60E45
:10049000F71E081F191F0E9463008823A1F6FFCFD3
:1004A00081E08983CCCFA8019701E981E13061F037
:1004B000B901CA010F90CF91DF911F910F91FF9069
:1004C000EF90DF90CF90089550954095309521950D
:1004D0003F4F4F4F5F4FECCFEF92FF920F931F9321
:1004E000CF93DF93EE24FF2487010E9463008823CB
:1004F00031F10E9473008D309105C1F08A30910571
:10050000A9F0EC01E097CA30D10578F7C801B7012E
:100510002AE030E040E050E00E94F2087E0100E076
:1005200010E0E60EF71E081F191FDFCFB701C80144
:10053000DF91CF911F910F91FF90EF900895FFCF22
:10054000DC01EC91EE2371F090E08091C00085FF1A
:10055000FCCFE093C6009F5FFD01E90FF11DE08134
:10056000EE2399F708951F920F920FB60F92112460
:100570002F933F934F935F936F937F938F939F93AB
:10058000AF93BF93EF93FF934091C600E09120019A
:10059000F0912101CF01019660E270E00E942509EF
:1005A0009C0180912201909123012817390739F08D
:1005B000E050FF4F40833093210120932001FF91B1
:1005C000EF91BF91AF919F918F917F916F915F91CB
:1005D0004F913F912F910F900FBE0F901F90189544
:1005E0008091C00085FFFCCF8DE08093C600809194
:1005F000C00085FFFCCF8AE08093C6000895982F45
:100600008091C00085FFFCCF9093C6008091C00010
:1006100085FFFCCF8DE08093C6008091C00085FFF0
:10062000FCCF8AE08093C6000895DC01EC91EE23B4
:1006300071F090E08091C00085FFFCCFE093C60090
:100640009F5FFD01E90FF11DE081EE2399F7809195
:10065000C00085FFFCCF8DE08093C6008091C00074
:1006600085FFFCCF8AE08093C6000895EF92FF9249
:100670000F931F93DF93CF93CDB7DEB7A0970FB63D
:10068000F894DEBF0FBECDBF9C010097B1F100E032
:1006900010E07E010894E11CF11CF701E00FF11F4E
:1006A000C9016AE070E00E94110980830F5F1F4F4B
:1006B000C9016AE070E00E9411099B016115710592
:1006C00061F70115110501F1F8013197EE0DFF1DDC
:1006D00080818A3078F4982F905D8091C00085FFEA
:1006E000FCCF9093C6003197EC17FD0769F080812D
:1006F0008A3088F3982F995CF0CF8091C00085FFF5
:10070000FCCF80E38093C6008091C00085FFFCCFC2
:100710008DE08093C6008091C00085FFFCCF8AE009
:100720008093C600A0960FB6F894DEBF0FBECDBF73
:10073000CF91DF911F910F91FF90EF900895EF926D
:10074000FF920F931F93DF93CF93CDB7DEB7A097A0
:100750000FB6F894DEBF0FBECDBF9C0197FD4DC014
:1007600021153105B1F100E010E07E010894E11C93
:10077000F11CF701E00FF11FC9016AE070E00E946F
:10078000110980830F5F1F4FC9016AE070E00E946A
:1007900011099B016115710561F70115110501F141
:1007A000F8013197EE0DFF1D80818A3078F4982F83
:1007B000905D8091C00085FFFCCF9093C60031977B
:1007C000EC17FD0769F080818A3088F3982F995CD7
:1007D000F0CF8091C00085FFFCCF80E38093C600FE
:1007E000A0960FB6F894DEBF0FBECDBFCF91DF91BC
:1007F0001F910F91FF90EF9008958091C00085FFA9
:10080000FCCF8DE28093C600309521953F4FA8CF55
:100810008F929F92AF92BF92CF92DF92EF92FF9210
:100820000F931F93DF93CF93CDB7DEB7A0970FB68B
:10083000F894DEBF0FBECDBF9B01AC0197FD73C026
:1008400069017A01211531054105510509F45FC09F
:10085000AA24BB244E010894811C911C84010A0D1A
:100860001B1DC701B6012AE030E040E050E00E94C5
:100870003809F80160830894A11CB11CC701B601B6
:100880002AE030E040E050E00E943809C901DA0176
:100890006C017D01C114D104E104F104F9F6A11445
:1008A000B104A1F0F5013197E80DF91D80818A307E
:1008B00008F048C0982F905D8091C00085FFFCCF64
:1008C0009093C6003197EC17FD0781F78091C00027
:1008D00085FFFCCF8DE08093C6008091C00085FF2E
:1008E000FCCF8AE08093C600A0960FB6F894DEBFD6
:1008F0000FBECDBFCF91DF911F910F91FF90EF9071
:10090000DF90CF90BF90AF909F908F90089580918F
:10091000C00085FFFCCF80E38093C6008091C000BB
:1009200085FFD4CFD7CF8091C00085FFFCCF8DE26B
:100930008093C60050954095309521953F4F4F4F7D
:100940005F4F7ECF982F995CB7CFEF92FF920F93B6
:100950001F93DF93CF93CDB7DEB7A0970FB6F89470
:10096000DEBF0FBECDBF9C010097B1F100E010E0EB
:100970007E010894E11CF11CF701E00FF11FC90191
:100980006AE070E00E94110980830F5F1F4FC90168
:100990006AE070E00E9411099B016115710561F721
:1009A0000115110501F1F8013197EE0DFF1D808150
:1009B0008A3078F4982F905D8091C00085FFFCCF3D
:1009C0009093C6003197EC17FD0769F080818A305B
:1009D00088F3982F995CF0CF8091C00085FFFCCF01
:1009E00080E38093C600A0960FB6F894DEBF0FBEDA
:1009F000CDBFCF91DF911F910F91FF90EF900895A0
:100A0000EF92FF920F931F93DF93CF93CDB7DEB793
:100A1000A0970FB6F894DEBF0FBECDBF9C0197FD27
:100A20005BC02115310509F44BC000E010E07E01E8
:100A30000894E11CF11CF701E00FF11FC9016AE005
:100A400070E00E94110980830F5F1F4FC9016AE0A7
:100A500070E00E9411099B016115710561F7011594
:100A6000110599F0F8013197EE0DFF1D80818A3054
:100A7000F0F5982F905D8091C00085FFFCCF90939A
:100A8000C6003197EC17FD0789F78091C00085FFFC
:100A9000FCCF8DE08093C6008091C00085FFFCCF25
:100AA0008AE08093C600A0960FB6F894DEBF0FBE12
:100AB000CDBFCF91DF911F910F91FF90EF900895DF
:100AC0008091C00085FFFCCF80E38093C6008091B9
:100AD000C00085FFDACFDDCF8091C00085FFFCCF5D
:100AE0008DE28093C600309521953F4F9ACF982F85
:100AF000995CC1CFEF92FF920F931F93DF93CF9337
:100B0000CDB7DEB7A0970FB6F894DEBF0FBECDBF4E
:100B10009C010097B1F100E010E07E010894E11C17
:100B2000F11CF701E00FF11FC9016AE070E00E94BB
:100B3000110980830F5F1F4FC9016AE070E00E94B6
:100B400011099B016115710561F70115110501F18D
:100B5000F8013197EE0DFF1D80818A3078F4982FCF
:100B6000905D8091C00085FFFCCF9093C6003197C7
:100B7000EC17FD0769F080818A3088F3982F995C23
:100B8000F0CF8091C00085FFFCCF80E38093C6004A
:100B9000A0960FB6F894DEBF0FBECDBFCF91DF9108
:100BA0001F910F91FF90EF900895EF92FF920F9396
:100BB0001F93DF93CF93CDB7DEB7A0970FB6F8940E
:100BC000DEBF0FBECDBF9C010097B1F100E010E089
:100BD0007E010894E11CF11CF701E00FF11FC9012F
:100BE0006AE070E00E94110980830F5F1F4FC90106
:100BF0006AE070E00E9411099B016115710561F7BF
:100C00000115110501F1F8013197EE0DFF1D8081ED
:100C10008A3078F4982F905D8091C00085FFFCCFDA
:100C20009093C6003197EC17FD0769F080818A30F8
:100C300088F3982F995CF0CF8091C00085FFFCCF9E
:100C400080E38093C6008091C00085FFFCCF8DE0DB
:100C50008093C6008091C00085FFFCCF8AE080931E
:100C6000C600A0960FB6F894DEBF0FBECDBFCF91E1
:100C7000DF911F910F91FF90EF900895EF92FF92F7
:100C80000F931F93DF93CF93CDB7DEB7A0970FB627
:100C9000F894DEBF0FBECDBF9C0197FD4DC021155E
:100CA0003105B1F100E010E07E010894E11CF11C77
:100CB000F701E00FF11FC9016AE070E00E9411091D
:100CC00080830F5F1F4FC9016AE070E00E94110925
:100CD0009B016115710561F70115110501F1F8011D
:100CE0003197EE0DFF1D80818A3078F4982F905D4A
:100CF0008091C00085FFFCCF9093C6003197EC1720
:100D0000FD0769F080818A3088F3982F995CF0CFD5
:100D10008091C00085FFFCCF80E38093C600A09641
:100D20000FB6F894DEBF0FBECDBFCF91DF911F91FC
:100D30000F91FF90EF9008958091C00085FFFCCF48
:100D40008DE28093C600309521953F4FA8CFEF925A
:100D5000FF920F931F93DF93CF93CDB7DEB7A0978A
:100D60000FB6F894DEBF0FBECDBF9C0197FD5BC0F0
:100D70002115310509F44BC000E010E07E01089414
:100D8000E11CF11CF701E00FF11FC9016AE070E0FE
:100D90000E94110980830F5F1F4FC9016AE070E054
:100DA0000E9411099B016115710561F7011511057B
:100DB00099F0F8013197EE0DFF1D80818A30F0F532
:100DC000982F905D8091C00085FFFCCF9093C60066
:100DD0003197EC17FD0789F78091C00085FFFCCFA4
:100DE0008DE08093C6008091C00085FFFCCF8AE033
:100DF0008093C600A0960FB6F894DEBF0FBECDBF9D
:100E0000CF91DF911F910F91FF90EF900895809106
:100E1000C00085FFFCCF80E38093C6008091C000B6
:100E200085FFDACFDDCF8091C00085FFFCCF8DE25A
:100E30008093C600309521953F4F9ACF982F995CAB
:100E4000C1CF8F929F92AF92BF92CF92DF92EF92DB
:100E5000FF920F931F93DF93CF93CDB7DEB7A09789
:100E60000FB6F894DEBF0FBECDBF6B017C016115DC
:100E700071058105910509F443C0AA24BB244E01E4
:100E80000894811C911C84010A0D1B1DC701B60129
:100E90002AE030E040E050E00E943809F801608329
:100EA0000894A11CB11CC701B6012AE030E040E063
:100EB00050E00E943809C901DA016C017D01C114BA
:100EC000D104E104F104F9F6A114B10401F1F50132
:100ED0003197E80DF91D80818A3078F4982F905D64
:100EE0008091C00085FFFCCF9093C6003197EC172E
:100EF000FD0769F080818A3088F3982F995CF0CFE4
:100F00008091C00085FFFCCF80E38093C600A0964F
:100F10000FB6F894DEBF0FBECDBFCF91DF911F910A
:100F20000F91FF90EF90DF90CF90BF90AF909F9088
:100F30008F9008958F929F92AF92BF92CF92DF923F
:100F4000EF92FF920F931F93DF93CF93CDB7DEB74E
:100F5000A0970FB6F894DEBF0FBECDBF6B017C012A
:100F6000611571058105910509F443C0AA24BB24CC
:100F70004E010894811C911C84010A0D1B1DC701A0
:100F8000B6012AE030E040E050E00E943809F80164
:100F900060830894A11CB11CC701B6012AE030E0AF
:100FA00040E050E00E943809C901DA016C017D017E
:100FB000C114D104E104F104F9F6A114B10401F162
:100FC000F5013197E80DF91D80818A3078F4982F6A
:100FD000905D8091C00085FFFCCF9093C600319753
:100FE000EC17FD0769F080818A3088F3982F995CAF
:100FF000F0CF8091C00085FFFCCF80E38093C600D6
:101000008091C00085FFFCCF8DE08093C600809169
:10101000C00085FFFCCF8AE08093C600A0960FB683
:10102000F894DEBF0FBECDBFCF91DF911F910F911E
:10103000FF90EF90DF90CF90BF90AF909F908F90F8
:1010400008958F929F92AF92BF92CF92DF92EF92CC
:10105000FF920F931F93DF93CF93CDB7DEB7A09787
:101060000FB6F894DEBF0FBECDBF9B01AC0197FD5C
:1010700065C069017A01211531054105510509F461
:1010800043C0AA24BB244E010894811C911C8401F6
:101090000A0D1B1DC701B6012AE030E040E050E018
:1010A0000E943809F80160830894A11CB11CC70193
:1010B000B6012AE030E040E050E00E943809C90162
:1010C000DA016C017D01C114D104E104F104F9F6E7
:1010D000A114B10401F1F5013197E80DF91D8081EA
:1010E0008A3078F4982F905D8091C00085FFFCCF06
:1010F0009093C6003197EC17FD0769F080818A3024
:1011000088F3982F995CF0CF8091C00085FFFCCFC9
:1011100080E38093C600A0960FB6F894DEBF0FBEA2
:10112000CDBFCF91DF911F910F91FF90EF90DF9096
:10113000CF90BF90AF909F908F9008958091C00006
:1011400085FFFCCF8DE28093C60050954095309589
:1011500021953F4F4F4F5F4F8CCF482F8AB1842B43
:101160008AB98BB1942F909589238BB98DE08A959C
:10117000F1F78BB1842B8BB981E28A95F1F78BB1B2
:1011800089238BB98AB198239AB920E030E006C050
:1011900085E02C3D380789F02F5F3F4F89B18423CC
:1011A0004817B1F302C02F5F3F4F89B1842348171E
:1011B00041F085E02C3D3807B1F720E030E0C9016F
:1011C000089589B184234817D1F72F5F3F4F89B124
:1011D00084234817A1F72F5F3F4F89B18423481715
:1011E000A1F3EDCF629FD001739FF001829FE00DCC
:1011F000F11D649FE00DF11D929FF00D839FF00D96
:10120000749FF00D659FF00D9927729FB00DE11D41
:10121000F91F639FB00DE11DF91FBD01CF0111241E
:101220000895AA1BBB1B51E107C0AA1FBB1FA6172D
:10123000B70710F0A61BB70B881F991F5A95A9F77F
:1012400080959095BC01CD01089597FB092E072646
:101250000AD077FD04D0E5DF06D000201AF470959F
:1012600061957F4F0895F6F7909581959F4F08956A
:10127000A1E21A2EAA1BBB1BFD010DC0AA1FBB1F9A
:10128000EE1FFF1FA217B307E407F50720F0A21B0C
:10129000B30BE40BF50B661F771F881F991F1A9479
:1012A00069F760957095809590959B01AC01BD01A3
:0812B000CF010895F894FFCF6F
:00000001FF
