:100000000C9471040C9499040C9499040C94990424
:100010000C9499040C9499040C9499040C949904EC
:100020000C9499040C9499040C9499040C949904DC
:100030000C9499040C94D90F0C9499040C94990481
:100040000C9499040C9499040C9428100C94990421
:100050000C9499040C9499040C9499040C949904AC
:100060000C940E150C9499044405300530053005A8
:1000700030053005300530053005300530053005D8
:1000800030053005300530053005300530053005C8
:1000900030053005300530053005300530053005B8
:1000A0003005300530053005300530054B0581053C
:1000B000B905300530053005250649064D065106BF
:1000C00030055C063005300567066C069B06BF06EA
:1000D000CA06D406E20630053005F10624075607A5
:1000E000000000009201000024030000B60400009C
:1000F00048060000DA0700006C090000FE0A000054
:10010000900C0000220E0000B40F00004611000009
:10011000D81200006A140000FC1500008E170000C1
:1001200020190000B21A0000441C0000D61D000077
:10013000681F0000FA2000008C2200001E2400002E
:10014000B025000042270000D4280000662A0000E5
:10015000F82B00008A2D00001C2F0000AE3000009C
:1001600040320000D233000064350000F636000053
:10017000883800001A3A0000AC3B00003E3D000009
:10018000D03E000062400000F441000086430000C1
:1001900018450000AA4600003C480000CE49000077
:1001A000604B0000F24C0000844E0000165000002E
:1001B000A85100003A530000CC5400005E560000E5
:1001C000F057000082590000145B0000A65C00009C
:1001D000385E0000CA5F00005C610000EE62000053
:1001E0008064000012660000A46700003669000009
:1001F000C86A00005A6C0000EC6D00007E6F0000C1
:1002000010710000A272000034740000C675000076
:1002100058770000EA7800007C7A00000E7C00002D
:10022000A07D0000327F0000C480000056820000E4
:10023000E88300007A8500000C8700009E8800009B
:10024000308A0000C28B0000548D0000E68E000052
:10025000789000000A9200009C9300002E95000008
:10026000C096000052980000E4990000769B0000C0
:10027000089D00009A9E00002CA00000BEA1000076
:1002800050A30000E2A4000074A6000006A800002D
:1002900098A900002AAB0000BCAC00004EAE0000E4
:1002A000E0AF000072B1000004B3000096B400009B
:1002B00028B60000BAB700004CB90000DEBA000052
:1002C00070BC000002BE000094BF000026C1000008
:1002D000B8C200004AC40000DCC500006EC70000C0
:1002E00000C9000092CA000024CC0000B6CD000076
:1002F00048CF0000DAD000006CD20000FED300002E
:1003000090D5000022D70000B4D8000046DA0000E3
:10031000D8DB00006ADD0000FCDE00008EE000009B
:1003200020E20000B2E3000044E50000D6E6000051
:1003300068E80000FAE900008CEB00001EED000008
:10034000B0EE000042F00000D4F1000066F30000BF
:10035000F8F400008AF600001CF80000AEF9000076
:1003600040FB0000D2FC000064FE0000F6FF00002D
:10037000880101001A030100AC0401003E060100DF
:10038000D007010062090100F40A0100860C010097
:10039000180E0100AA0F01003C110100CE1201004D
:1003A00060140100F2150100841701001619010004
:1003B000A81A01003A1C0100CC1D01005E1F0100BB
:1003C000F02001008222010014240100A625010072
:1003D00038270100CA2801005C2A0100EE2B010029
:1003E000802D0100122F0100A430010036320100DF
:1003F000C83301005A350100EC3601007E38010097
:10040000103A0100A23B0100343D0100C63E01004C
:1004100058400100EA4101007C4301000E45010003
:10042000A046010032480100C4490100564B0100BA
:10043000E84C01007A4E01000C5001009E51010071
:1004400030530100C254010054560100E657010028
:10045000785901000A5B01009C5C01002E5E0100DE
:10046000C05F010052610100E46201007664010096
:10047000086601009A6701002C690100BE6A01004C
:10048000506C0100E26D0100746F01000671010003
:10049000987201002A740100BC7501004E770100BA
:1004A000E0780100727A0100047C0100967D010071
:1004B000287F0100BA8001004C820100DE83010028
:1004C000708501000287010094880100268A0100DE
:1004D000B88B01004A8D0100DC8E01006E90010096
:1004E00000000100FFFF0000FBFF0000F5FF00001F
:1004F000ECFF0000E1FF0000D4FF0000C4FF00009B
:10050000B1FF00009CFF000085FF00006BFF0000B2
:100510004FFF000030FF00000EFF0000EBFE000068
:10052000C5FE00009CFE000071FE000043FE0000BE
:1005300013FE0000E1FD0000ACFD000075FD0000B1
:100540003BFD0000FFFC0000C0FC00007FFC000041
:100550003CFC0000F6FB0000ADFB000063FB00006C
:1005600016FB0000C6FA000074FA00001FFA000033
:10057000C9F900006FF9000014F90000B6F8000096
:1005800055F80000F2F700008DF7000025F7000095
:10059000BBF600004FF60000E0F500006FF500002C
:1005A000FCF4000086F400000EF4000093F3000059
:1005B00016F3000097F2000016F2000092F100001E
:1005C0000BF1000083F00000F8EF00006BEF00007B
:1005D000DBEE00004AEE0000B5ED00001FED00006C
:1005E00086EC0000EBEB00004EEB0000AFEA0000F1
:1005F0000DEA000069E90000C3E800001AE8000005
:1006000070E70000C3E6000014E6000062E50000A9
:10061000AFE40000F9E3000041E3000087E20000DE
:10062000CAE100000CE100004BE0000088DF0000A0
:10063000C3DE0000FCDD000033DD000067DC0000ED
:100640009ADB0000CADA0000F8D9000024D90000C3
:100650004ED8000076D700009CD60000C0D5000020
:10066000E2D4000002D400001FD300003BD20000FF
:1006700054D100006CD0000082CF000095CE000065
:10068000A7CD0000B6CC0000C4CB0000D0CA00004B
:10069000D9C90000E1C80000E7C70000EBC60000B0
:1006A000EDC50000EDC40000EBC30000E7C2000090
:1006B000E2C10000DAC00000D1BF0000C6BE0000E9
:1006C000B9BD0000AABC00009ABB000087BA0000B8
:1006D00073B900005DB8000045B700002CB60000FB
:1006E00010B50000F3B30000D4B20000B4B10000B4
:1006F00092B000006EAF000048AE000021AD0000D7
:10070000F8AB0000CDAA0000A1A9000073A800006A
:1007100044A7000012A60000E0A40000ABA3000064
:1007200076A200003EA1000005A00000CA9E0000C5
:100730008E9D0000519C0000129B0000D19900008A
:100740008F9800004B97000006960000C0940000B0
:10075000789300002F920000E4900000988F000032
:100760004A8E0000FC8C0000AB8B00005A8A00000F
:1007700007890000B38700005D8600000685000041
:10078000AE83000055820000FA8000009E7F0000CA
:10079000417E0000E37C0000837B0000237A0000A0
:1007A000C17800005E770000FA75000094740000C4
:1007B0002E730000C67100005E700000F46E000031
:1007C000896D00001D6C0000B06A000042690000E5
:1007D000D367000063660000F264000081630000DC
:1007E0000E6200009A600000255F0000AF5D00000F
:1007F000395C0000C15A000049590000D057000080
:1008000056560000DB5400005F530000E351000027
:1008100066500000E84E0000694D0000E94B000002
:10082000694A0000E848000066470000E44500000F
:1008300061440000DD42000059410000D43F000047
:100840004E3E0000C83C0000413B0000BA390000A9
:1008500032380000A9360000203500009733000030
:100860000D32000082300000F72E00006C2D0000D9
:10087000E02B0000542A0000C72800003A2700009F
:10088000AD2500001F24000091220000022100007D
:10089000741F0000E41D0000551C0000C51A000074
:1008A00036190000A517000015160000841400007A
:1008B000F412000063110000D10F0000400E000090
:1008C000AF0C00001D0B00008B090000FA070000B0
:1008D00068060000D604000044030000B2010000D6
:1008E000CE0A11241FBECFEFD8E0DEBFCDBF12E08D
:1008F000A0E0B1E0E0E2FEE402C005900D92A2317A
:10090000B107D9F716E0A2E1B2E001C01D92A3350C
:10091000B107E1F718E0C2EED8E004C02297FE016B
:100920000E940A27C03ED107C9F70E94F2040C9426
:100930000E270C9400009F92AF92BF92CF92DF924D
:10094000EF92FF920F931F930F2EF0E8EF2EF6E930
:10095000FF2EF8E90F2FF0E01F2FF02DAA24BB2463
:100960006501992401C000000E9450108823D9F32A
:100970000E945F10282F80538A3010F530E02053FA
:100980003040442737FD4095542FC801B7010E94DD
:100990004E26A60EB71EC81ED91E939487E0891551
:1009A00098F0C801B7012AE030E040E050E00E9432
:1009B000B626822F932FA42FB52F7C018D01D4CF83
:1009C000AA24AA94BA2C65016A2D7B2D8C2D9D2D0D
:1009D0001F910F91FF90EF90DF90CF90BF90AF905D
:1009E0009F9008954F925F926F927F928F929F9205
:1009F000AF92BF92CF92DF92EF92FF920F931F932D
:100A0000CF93DF930E94AC100E946F1381E292E0BB
:100A10000E949C0978940E94591380E091E00E9402
:100A2000E511CFE6D0E00F2EF1E2CF2EF2E0DF2E7F
:100A3000F02D0F2EFEE46F2EF2E07F2EF02D0F2E04
:100A4000F5E8AF2EF2E0BF2EF02D0F2EF9E88F2E35
:100A5000F2E09F2EF02D44245524439401C0000061
:100A60000E9450108823D9F30E945F1090E0FC018F
:100A7000FF97EC33F105A0F7EC5CFF4FEE0FFF1F83
:100A80000590F491E02D099460E070E080E090E042
:100A90000E946612E5CFC6010E94DD080E949B04F9
:100AA0007B018C01603826E9720728E9820720E083
:100AB000920794F0F4014081518162817381C601F3
:100AC0000E946909B801A701405856496849704019
:100AD000C6010E947509C4CF992314F2F401408124
:100AE000518162817381C6010E946909442755279B
:100AF000BA014E195F09600B710BC6010E9475099E
:100B0000AFCFC6010E94DD080E949B04DC01CB012F
:100B10008038F6E99F07F8E9AF07F0E0BF0794F0E7
:100B2000AC01BD014058564968497040C6010E9459
:100B30006909F5014081518162817381C6010E947A
:100B400075098ECFBB230CF48BCF44275527BA01F0
:100B5000481B590B6A0B7B0BC6010E946909F50102
:100B60004081518162817381C6010E94750978CFED
:100B700000000E9450108823D9F30E945F10823732
:100B800091F1843709F06CCF0E945F108936F1F043
:100B9000803721F0843609F063CF0CC00E949B049B
:100BA0009B01AC0199230CF45BCFC301B9010E94F6
:100BB000A00856CF0E949B049B01AC0199230CF422
:100BC0004FCFC301B9010E94B9084ACF0E949B04CC
:100BD0009B01AC0199230CF443CFC301B9010E94DE
:100BE000C5083ECF00000E9450108823D9F30E9410
:100BF0005F108936F1F0803721F0843609F030CF6C
:100C00000CC00E949B049B01AC0199230CF428CFDB
:100C1000C601B9010E94A00823CF0E949B049B013A
:100C2000AC0199230CF41CCFC601B9010E94B9088C
:100C300017CF0E949B049B01AC0199230CF410CFA9
:100C4000C601B9010E94C5080BCF0E949B04DC01BC
:100C5000CB018038F6E99F07F8E9AF07F0E0BF075E
:100C600054F0AC01BD014058564968497040C60176
:100C70000E946909F5CEBB230CF4F2CE4427552718
:100C8000BA01481B590B6A0B7B0BC6010E9469090C
:100C9000E7CEC6010E947D09E3CEC6010E94850908
:100CA000DFCE88818E7F88835092070140920601B3
:100CB000888181608883D4CE0E949B04AB01BC01F3
:100CC00077230CF4CDCEC6010E94B308C9CE88812B
:100CD0008E7F8883C5CE00000E9450108823D9F3F0
:100CE0000E945F108237A9F0843709F0B9CE0E94C4
:100CF0009B049B01AC0199230CF4B2CE88818E7FBA
:100D00008883C301B9010E94A80888818160888313
:100D1000A7CE0E949B049B01AC0199230CF4A0CEAA
:100D200088818E7F8883C601B9010E94A8088881C6
:100D30008160888395CE0E949B04DC01CB018038C2
:100D400026E9920728E9A20720E0B20754F0AC0197
:100D5000BD014058564968497040C6010E94750956
:100D60007FCEBB230CF47CCE44275527BA01481B09
:100D7000590B6A0B7B0BC6010E94750971CE8881E5
:100D80008E7F88831092070110920601888181600E
:100D9000888366CE88818E7F8883C6010E94DD08A5
:100DA0008881816088835CCE88818E7F8883F4010E
:100DB00060817181828193810E9466128881816045
:100DC00088834ECE88818E7F8883F5016081718112
:100DD000828193810E94661288818160888340CEDF
:100DE00000000E9450108823D9F30E945F108736BC
:100DF00021F0833709F034CE13C088818E7F888339
:100E00006091120270911302809114029091150268
:100E10000E945E240E94661288818160888320CEB1
:100E20000E949B0428812E7F28830E9400246093C7
:100E3000120270931302809314029093150288811A
:100E4000816088830DCE00000E9450108823D9F362
:100E50000E945F10873621F0833709F001CE13C05E
:100E600088818E7F8883609116027091170280912D
:100E70001802909119020E945E240E9466128881D5
:100E800081608883EDCD0E949B0428812E7F28837A
:100E90000E94002460931602709317028093180238
:100EA00090931902888181608883DACD0E949B0427
:100EB000AB01BC0177230CF4D3CDC6010E94B3086B
:100EC000CFCDECE7F0E0808181608083EAE7F0E05D
:100ED000808180648083808186FDFDCF8091790050
:100EE0002091780030E090E0282B392B822F932F2F
:100EF0000895ECE7F0E080818E7F8083EAE7F0E000
:100F0000808180648083ECE6F0E08081886080836B
:100F1000EAE7F0E0808186FDFDCF809179002091A5
:100F2000780030E090E0282B392B822F932F089502
:100F3000FC01148A158A168A178A1082118212827D
:100F40001382108A118A128A138A148215821682D9
:100F500017821086118612861386148615861686C9
:100F6000178610A211A212A213A211A612A613A6EE
:100F700014A616A215A210A617A2108E118E128EFC
:100F8000138E148E158E168E178E0895FC01148AFA
:100F9000158A168A178A1082118212821382108A89
:100FA000118A128A138A1482158216821782108679
:100FB000118612861386148615861686178610A249
:100FC00011A212A213A211A612A613A614A616A26B
:100FD00015A210A617A2108E118E128E138E148ECB
:100FE000158E168E178E08956F927F928F929F9214
:100FF000AF92BF92CF92DF92EF92FF920F931F9327
:10100000CF93DF93EC0158016901A41AB50AC60A0F
:10101000D70A84E0A816B104C104D1042CF418A2A4
:1010200019A21AA21BA20CC088A199A1AAA1BBA1B6
:101030008A0D9B1DAC1DBD1D88A399A3AAA3BBA3AC
:1010400069A47AA48BA49CA42C813D814E815F81EC
:10105000C401B3010E944E262CA130E040E050E0D4
:101060000E944E2624E630E040E050E00E94B62682
:1010700079018A0168A179A18AA19BA12885398576
:101080004A855B850E944E26E61AF70A080B190B63
:10109000288139814A815B81C601B5010E944E26B3
:1010A00025E030E040E050E00E94B626E20EF31E5C
:1010B000041F151F688979898A899B8966157705B8
:1010C0008805990574F466197709880999092C85AA
:1010D0003D854E855F850E944E26E60EF71E081F51
:1010E000191F2C893D894E895F89D801C7012E15AA
:1010F0003F054007510714F4DA01C901EE24FF242B
:101100008701E21AF30A040B150B9C01AD018E1541
:101110009F05A007B10714F4A8019701822F932F10
:10112000DF91CF911F910F91FF90EF90DF90CF90C3
:10113000BF90AF909F908F907F906F90089508958B
:10114000FC0180E090E06083718382839383089543
:101150009B01442737FD4095542FFC01248B358B90
:10116000468B578B0895FC01408B518B628B738BA0
:1011700008959B0140E050E0FC01248335834683C1
:1011800057830895FC0164A308959B0140E050E05B
:10119000FC01208731874287538708959B0140E0F7
:1011A00050E0FC0124873587468757870895FC0166
:1011B00041A752A763A774A70895CF93DF93FC01BB
:1011C000DC01AC59BF4F8D919D910D90BC91A02D2C
:1011D0009F012C583F4FE90188839983AA83BB83E1
:1011E000DF01A859BF4F8D919D910D90BC91A02D0D
:1011F0009F0120593F4FE90188839983AA83BB83CC
:10120000DF01A259BF4F81E090E08D939C93E45998
:10121000FF4F91838083DF91CF9108950E94DD0875
:101220000895CF92DF92EF92FF920F931F936C017C
:10123000C701D70111970D96880F991F880F991F25
:10124000880F991FF601E80FF91F0083118322838D
:101250003383AA0FBB1FAA0FBB1FAA0FBB1FCA0E47
:10126000DB1E84E790E0C80ED91EF601408351834F
:10127000628373831F910F91FF90EF90DF90CF9067
:101280000895FC01E259FF4F718360830895235F45
:101290003F4F220F331F220F331F220F331FFC013A
:1012A000E20FF31F408351836283738308952150BB
:1012B0003040220F331F220F331F220F331FFC0138
:1012C000E20FF31FEC58FF4F408351836283738317
:1012D0000895FC01E259FF4F208131812F5F3F4F7C
:1012E000318320830E9447090895FC01E259FF4F92
:1012F000208131810E9457090895FC01E65AFF4F71
:10130000808191E0892780830895FC01E55AFF4F91
:10131000808191E0892780830895FC01DC01A25936
:10132000BF4F81E090E08D939C93E459FF4F9183F0
:1013300080830E9459130895CF92DF92EF92FF921B
:101340000F931F93CF93DF93EC018091060190914F
:1013500007010197C9F480E090E8ACE2B5E480931E
:10136000120290931302A0931402B093150280E02E
:1013700090E8A2EFB4E48093160290931702A09332
:101380001802B093190218C080E090E0A0E7B3E41F
:101390008093120290931302A0931402B09315024B
:1013A00080E090E8A2EFB4E48093160290931702D5
:1013B000A0931802B09319020F2EF8E6CF2EDD2469
:1013C000F02DCC0EDD1EF6011082118212821382E6
:1013D0000F2EF4E6EF2EFF24F02DEC0EFD1EF7018C
:1013E00010821182128213828C2F9D2F61E00E9445
:1013F000C2088E01035D1F4FC80161E00E94C20850
:10140000FE01E65AFF4F81E08083FE01E55AFF4F5F
:101410008083AAE2B0E08C9180648C93E4E4F0E0F5
:1014200080818F7B808380818068808380818160E0
:101430008083808182608083E5E4F0E08081877F23
:1014400080838081816080838C9188608C93E0EBC5
:10145000F0E080818F7E80838081806280838081C4
:1014600081608083808182608083E1EBF0E0808115
:10147000877F80838081816080838C9180618C9361
:10148000E4E2F0E0808181608083EFE6F0E080813B
:1014900081608083E1E8F0E0808182608083FE01EA
:1014A000E259FF4F81E090E091838083FE01E4598F
:1014B000FF4F918380838C2F9D2F65E070E00E9409
:1014C000A0088C2F9D2F6FEF70E00E94A8088C2F32
:1014D0009D2F6CE271E00E94B9088C2F9D2F60E077
:1014E00070E00E94C5088C2F9D2F40E050E060E026
:1014F00070E00E94B3088C2F9D2F60E070E00E9486
:10150000CE08C80163E070E00E94A008C8016FEF38
:1015100070E00E94A808C80168EC70E00E94B90859
:10152000C80160E070E00E94C508C80140E050E0DA
:1015300060E070E00E94B308C80160E070E00E94C3
:10154000CE08FE01E45AFF4F1082118212821382EC
:10155000FE01E05AFF4F1082118212821382F701BE
:101560001082118212821382F6011082118212827D
:101570001382DF91CF911F910F91FF90EF90DF9039
:10158000CF9008950F931F938C010E94C607C80146
:101590008D960E94C6071F910F91089581E292E0F7
:1015A0000E94C20A08950F931F938C010E94C607E0
:1015B000C8018D960E94C6071F910F9108952F9222
:1015C0003F924F925F926F927F928F929F92AF92D3
:1015D000BF92CF92DF92EF92FF920F931F93DF9310
:1015E000CF93CDB7DEB76E970FB6F894DEBF0FBEC0
:1015F000CDBF9A8F898FCE0101960E947B142981DD
:101600003A814B815C812D8B3E8B4F8B588F8D8126
:101610009E81AF81B885898B9A8BAB8BBC8BE98D12
:10162000FA8DEC59FF4F80819181A281B381E989C4
:10163000FA89E81BF90BF88BEF87E98DFA8DE859E9
:10164000FF4F80819181A281B381281B390B3E8796
:101650002D872F853889232B09F019C18091060128
:1016600090910701019709F089C04D855E85BA0107
:10167000882777FD8095982F0E9400241B012C015C
:10168000898D9A8D8C599F4F9C8F8B8FDC016D912A
:101690007D918D919C910E94002423E732E541E4E5
:1016A00052E40E945A220E945E240E941B165B0193
:1016B0006C0160901202709013028090140290905E
:1016C0001502C201B1012DE834E645ED55EB0E944B
:1016D0005A227B018C01C601B5010E9400249B01A6
:1016E000AC01C801B7010E945A22A40193010E94D3
:1016F0002D22609312027093130280931402909330
:101700001502EB8DFC8D60817181828193810E9435
:10171000002423E732E541E452E40E945A220E9469
:101720005E240E94E1175B016C01609016027090CC
:1017300017028090180290901902C201B1012DE8A1
:1017400034E645ED55E30E945A227B018C01C60127
:10175000B5010E9400249B01AC01C801B7010E94A1
:101760005A22A40193010E942D22609316027093C5
:1017700017028093180290931902C5C12D853E85EA
:10178000B901882777FD8095982F0E9400241B01BE
:101790002C01498D5A8D4C595F4F5E8F4D8FDA0168
:1017A0006D917D918D919C910E94002423E732E5FB
:1017B00041E452E40E945A220E945E240E941B16B9
:1017C0005B016C0160901202709013028090140211
:1017D00090901502C201B1012DE834E645ED55E3C4
:1017E0000E945A227B018C01C601B5010E9400248F
:1017F0009B01AC01C801B7010E945A22A4019301C8
:101800000E942D226093120270931302809314029F
:1018100090931502ED8DFE8D60817181828193819F
:101820000E94002423E732E541E452E40E945A2258
:101830000E945E240E94E1175B016C016090160219
:10184000709017028090180290901902C201B101A5
:101850002DE834E645ED55EB0E945A227B018C01C0
:10186000C601B5010E9400249B01AC01C801B7016B
:101870000E945A22A40193010E942D226093160215
:101880007093170280931802909319023CC12D8522
:101890003E85B901882777FD8095982F0E94002406
:1018A0001B012C0124E13AE44DE05BE30E945A2243
:1018B0007B018C014F855889BA01882777FD809577
:1018C000982F0E9400249B01AC01C801B7010E941F
:1018D000542369877A878B879C8780910601909132
:1018E0000701019709F089C06090120270901302FD
:1018F0008090140290901502498C5A8C84E690E0F6
:10190000480E591ED2016D917D918D919C910E943E
:10191000002423E732E541E452E40E945A220E9467
:101920005E240E94E1177B018C0169897A898B8989
:101930009C890E94002423E732E541E452E40E949E
:101940005A220E945E245B016C010E94E117E61A94
:10195000F70A080B190BC801B7010E94002429855A
:101960003A854B855C850E945A229B01AC01C401DB
:10197000B3010E94FC2160931202709313028093C2
:10198000140290931502C601B5010E941B167B013B
:101990008C01F20160817181828193810E94002417
:1019A00023E732E541E452E40E945A220E945E2479
:1019B0000E941B16A0901602B0901702C090180249
:1019C000D0901902E61AF70A080B190BC801B701E3
:1019D0000E94002429853A854B855C850E945A2205
:1019E000A60195010E942D226093160270931702A2
:1019F000809318029093190286C0898C9A8C24E6F1
:101A000030E0820E931ED4016D917D918D919C9159
:101A10000E94002423E732E541E452E40E945A2266
:101A20000E945E240E94E1177B018C0169897A89FA
:101A30008B899C890E94002423E732E541E452E42B
:101A40000E945A220E945E240E94E117A090120276
:101A5000B0901302C0901402D0901502E61AF70A53
:101A6000080B190BC801B7010E94002429853A858B
:101A70004B855C850E945A22A60195010E942D2269
:101A800060931202709313028093140290931502D4
:101A9000F40160817181828193810E94002423E797
:101AA00032E541E452E40E945A220E945E240E94E0
:101AB000E1175B016C016090160270901702809034
:101AC000180290901902C201B1012DE834E645EDEB
:101AD00055EB0E945A227B018C01C601B5010E9480
:101AE00000249B01AC01C801B7010E945A22A40145
:101AF00093010E942D226093160270931702809327
:101B0000180290931902A98C8A8CE98DFA8DEC59F0
:101B1000FF4F80819181A281B38149895A896B8964
:101B20007C89481B590B6A0B7B0B8A2D982D0E94D0
:101B3000D708498C5A8C2DE230E0420E531EE98DB5
:101B4000FA8DE859FF4F80819181A281B3814D893F
:101B50005E896F89788D481B590B6A0B7B0BC2011C
:101B60000E94D708E98DFA8DE459FF4F6081718199
:101B7000E98DFA8DE259FF4F8081918168177907CD
:101B800008F06AC06130710549F4E98DFA8DE459B5
:101B9000FF4F82E090E0918380835EC0CB01835F42
:101BA0009F41880F991F880F991F880F991FE98DF2
:101BB000FA8DE80FF91F80819181A281B3817C01A8
:101BC0008D012D893E894F89588DE21AF30A040B45
:101BD000150B42F410950095F094E094E11CF11C73
:101BE000011D111DCB010E96880F991F880F991F9B
:101BF000880F991FA98DBA8DA80FB91FCB01845FDB
:101C00009F41880F991F880F991F880F991FE98D91
:101C1000FA8DE80FF91F2D913D914D915C918081D6
:101C20009181A281B381281B390B4A0B5B0B3AF4DB
:101C300050954095309521953F4F4F4F5F4F2E1552
:101C40003F054007510744F0E98DFA8DE459FF4FF5
:101C5000CB01019691838083E98DFA8DE55AFF4F80
:101C60008081882319F4EE24FF2421C0E98DFA8DA8
:101C7000E459FF4F808191818150904E880F991FC8
:101C8000880F991F880F991FE98DFA8DE80FF91FAA
:101C9000EC58FF4F40815181628173818A2D982DCC
:101CA00009891A892B893C890E94F4077C01E98DF6
:101CB000FA8DE65AFF4F8081882309F469C1E98DC6
:101CC000FA8DE459FF4F80819181835F9F41880F96
:101CD000991F880F991F880F991FE98DFA8DE80FBA
:101CE000F91F4081518162817381C2010D891E8972
:101CF0002F89388D0E94F4078C01009709F44AC19E
:101D0000E114F10409F446C1E98DFA8DE859FF4F59
:101D100080819181A281B3812D893E894F89588D1F
:101D200082179307A407B50709F034C1E98DFA8D2E
:101D3000EC59FF4F80819181A281B38129893A8931
:101D40004B895C8982179307A407B50709F022C164
:101D5000E98DFA8DE459FF4F80819181029708F453
:101D600019C180911A0290911B028832910561F489
:101D7000898D9A8D0E94DD0886E60E94E0111092FE
:101D80001B0210921A0282C0019690931B0280934C
:101D90001A027CC0E98DFA8DE259FF4F8081918152
:101DA0004817590709F072C02D853E8533231CF46E
:101DB000309521953F4F80911C0290911D029923EF
:101DC0001CF4909581959F4F281739070CF05EC041
:101DD0002F85388933231CF4309521953F4F80910E
:101DE0001E0290911F0299231CF4909581959F4F9C
:101DF000281739070CF04AC0298D3A8D2C583F4FCF
:101E0000CA018150904E880F991F880F991F880F23
:101E1000991FE98DFA8DE80FF91FEC58FF4F80816B
:101E20009181A281B381F90180839183A283B383DD
:101E3000498D5A8D40595F4F298D3A8D22593F4F18
:101E4000D9018D919C91835F9F41880F991F880FC5
:101E5000991F880F991FE98DFA8DE80FF91F80816E
:101E60009181A281B381FA0180839183A283B3839C
:101E700081E090E0D9018D939C93E98DFA8DE4592E
:101E8000FF4F9183808386E60E94E01198012E0D1A
:101E90003F1DC8018E199F09BFEF81309B0714F4C5
:101EA00081E09FEFAC018F3F910519F014F04FEFE7
:101EB00050E0EFEF21303E0714F421E03FEF2F3FD9
:101EC000310519F014F02FEF30E01416150644F424
:101ED000EBE2F0E08081806180834093B40009C030
:101EE000EBE2F0E080818F7E8083842F8195809368
:101EF000B400121613063CF4E5E2F0E08081816044
:101F0000808327BD08C0E5E2F0E080818E7F80837A
:101F1000822F819587BDE98DFA8DEC59FF4F298974
:101F20003A894B895C892083318342835383E98DCD
:101F3000FA8DE859FF4F8D899E89AF89B88D8083CE
:101F40009183A283B383AD85BE85B0931D02A09318
:101F50001C02EF85F889F0931F02E0931E026E9633
:101F60000FB6F894DEBF0FBECDBFCF91DF911F91AA
:101F70000F91FF90EF90DF90CF90BF90AF909F9028
:101F80008F907F906F905F904F903F902F9008952B
:101F900000E010E010921B0210921A02E98DFA8DF7
:101FA000E459FF4F408151814230510508F0F2CE93
:101FB0006DCF78941F920F920FB60F9211242F932A
:101FC0003F934F935F936F937F938F939F93AF93C1
:101FD000BF93EF93FF9381E292E00E94DF0AFF91AB
:101FE000EF91BF91AF919F918F917F916F915F9191
:101FF0004F913F912F910F900FBE0F901F9018950A
:102000000F931F93CF93DF93482FEB01FB01E05811
:10201000FF4F00811181C801019660E870E00E94C5
:1020200081269C01FE01EE57FF4F8081918182172E
:10203000930749F0FE01E00FF11F4083FE01E058D5
:10204000FF4F31832083DF91CF911F910F9108952E
:102050001F920F920FB60F9211242F933F934F931D
:102060005F936F937F938F939F93AF93BF93EF9300
:10207000FF938091C60061EB75E00E940010FF9114
:10208000EF91BF91AF919F918F917F916F915F91F0
:102090004F913F912F910F900FBE0F901F90189569
:1020A000E1E3F6E08191919180589F4F2081318149
:1020B000821B930B60E870E00E9481260895409196
:1020C0003306509134068091310690913206841780
:1020D000950719F42FEF3FEF0FC0FA01EF54FA4FB5
:1020E0002081CA01019660E870E00E9481269093E9
:1020F00034068093330630E0822F932F0895E0EC6E
:10210000F0E080818823ECF78091C6000895982F35
:10211000E0ECF0E0808185FFFDCF9093C60008954C
:102120008DE00E9487108AE00E94871008951F9317
:10213000CF93DF93EC018881882351F010E00E9457
:1021400087101F5FFE01E10FF11D80818823B9F721
:10215000DF91CF911F9108951092C50085E1809382
:10216000C400E1ECF0E08081806880838081806140
:1021700080838081886080838EE08093C200789421
:102180000895EF92FF920F931F93DF93CF93CDB7F4
:10219000DEB7A0970FB6F894DEBF0FBECDBF9C018F
:1021A000009721F480E30E94871031C000E010E026
:1021B0007E010894E11CF11CF701E00FF11FC90139
:1021C0006AE070E00E946D2680830F5F1F4FC90197
:1021D0006AE070E00E946D26862F972F9C012115E2
:1021E000310551F7C8010115110589F08E01080F5D
:1021F000191FF80180818A3010F4805D01C0895C6C
:102200000E948710015010400C171D0791F7A096EF
:102210000FB6F894DEBF0FBECDBFCF91DF911F91F7
:102220000F91FF90EF900895EF92FF920F931F93FD
:10223000DF93CF93CDB7DEB7A0970FB6F894DEBF8C
:102240000FBECDBF9C01009721F480E30E94871050
:1022500031C000E010E07E010894E11CF11CF701A0
:10226000E00FF11FC9016AE070E00E946D268083D3
:102270000F5F1F4FC9016AE070E00E946D26862F34
:10228000972F9C012115310551F7C8010115110542
:1022900089F08E01080F191FF80180818A3010F42F
:1022A000805D01C0895C0E948710015010400C17AE
:1022B0001D0791F7A0960FB6F894DEBF0FBECDBFF5
:1022C000CF91DF911F910F91FF90EF9008958F9222
:1022D0009F92AF92BF92CF92DF92EF92FF920F93B5
:1022E0001F93DF93CF93CDB7DEB7A0970FB6F894C7
:1022F000DEBF0FBECDBF6B017C016115710581058D
:10230000910521F480E30E9487103EC0AA24BB24DB
:102310004E010894811C911C84010A0D1B1DC701EC
:10232000B6012AE030E040E050E00E949426F80137
:1023300060830894A11CB11CC701B6012AE030E0FB
:1023400040E050E00E949426822F932FA42FB52FB7
:102350006C017D01C114D104E104F104E9F6A1147A
:10236000B10491F07E01EA0CFB1CF70180818A30F8
:1023700010F4805D01C0895C0E9487100894E10818
:10238000F108EC16FD0689F7A0960FB6F894DEBFAB
:102390000FBECDBFCF91DF911F910F91FF90EF90B6
:1023A000DF90CF90BF90AF909F908F9008950E9444
:1023B000971008950E94871008950E949010089524
:1023C0000E9487100E94901008950E9497100E940A
:1023D000901008950E94C11008950E94141108954C
:1023E0000E94671108950E9414110E949010089590
:1023F0000E94C1100E94901008950E9467110E94CF
:1024000090100895CF93DF93EC01992334F48DE27B
:102410000E948710D095C195DF4FCE010E94141104
:10242000DF91CF910895CF93DF93EC01992334F49A
:102430008DE20E948710D095C195DF4FCE010E949A
:10244000C110DF91CF910895EF92FF920F931F93E8
:102450007B018C0199235CF48DE20E94871010951A
:102460000095F094E094E11CF11C011D111DC801C0
:10247000B7010E9467111F910F91FF90EF9008958F
:10248000CF93DF93EC01992334F48DE20E948710FF
:10249000D095C195DF4FCE010E9414110E9490107B
:1024A000DF91CF910895CF93DF93EC01992334F41A
:1024B0008DE20E948710D095C195DF4FCE010E941A
:1024C000C1100E949010DF91CF910895EF92FF927A
:1024D0000F931F937B018C0199235CF48DE20E9482
:1024E000871010950095F094E094E11CF11C011DFB
:1024F000111DC801B7010E9467110E9490101F9121
:102500000F91FF90EF900895CF92DF92EF92FF929C
:102510000F931F93CF93DF93EE24FF248701DD24D5
:10252000CC24C39401C0DC2C0E9450108823F1F10C
:102530000E945F108D329105B1F38D30910531F01D
:102540008A30910519F08034910561F481E0D81644
:1025500001F510950095F094E094E11CF11C011D2B
:10256000111D17C0EC01E097CA30D105E8F6C8018B
:10257000B7012AE030E040E050E00E944E269E0184
:1025800040E050E079018A01E60EF71E081F191F8E
:10259000CBCF6E2D7F2D802F912FDF91CF911F916B
:1025A0000F91FF90EF90DF90CF900895FFCFEF92C3
:1025B000FF920F931F93CF93DF93EE24FF248701A5
:1025C0000E945010882351F10E945F108D309105B8
:1025D00019F08A30910559F46E2D7F2D802F912F9F
:1025E000DF91CF911F910F91FF90EF900895EC0133
:1025F000E097CA30D10520F7C801B7012AE030E0E2
:1026000040E050E00E944E269E0140E050E07901FB
:102610008A01E60EF71E081F191FD2CFFFCF8CE0EC
:102620008093B8008FEF8093BB0084E08093BC0060
:1026300008958091BC00817008950E941913882329
:10264000E1F78091080108951F93CF93DF93EC0188
:10265000162F0E9419138823E1F7109348068881EA
:102660008093490680FD19C01230B8F0DE01EAE41B
:10267000F6E0912F9250C92FD0E0AE014E5F5F4F30
:1026800069E476E09B01240F351F11968C91119718
:1026900081931196E217F307C1F71092470688EF6E
:1026A0008093080185EA8093BC00DF91CF911F9150
:1026B00008950E941913882321F08091470680FF16
:1026C000F8CF8EE396E0FC0120E2219320E1208305
:1026D00062E00E94241386E08A95F1F708950E9433
:1026E0000F137894EEE3F6E080E28193108285E3A5
:1026F00096E062E00E94241308950E941913882333
:10270000E1F71092470688EF8093080185EA8093ED
:10271000BC0008951F93CF93DF93EC01162F0E9406
:1027200019138823E1F78091470680FF12C0112317
:1027300081F020E030E049E456E0FE01E20FF31FB3
:10274000DA01A20FB31F8C9180832F5F3F4F2117B7
:10275000A0F3809147068170DF91CF911F9108957A
:102760000F931F930E9419138823B9F08091470695
:1027700080FD13C0F7CF0E9419138823C1F0809108
:10278000470680FD14C0F7CF0E9419138823D9F0A3
:102790008091470680FD17C0F7CF8EE396E020E2D8
:1027A000FC012193208362E00E942413E4CF86E0A1
:1027B0008A95F1F7E5E3F6E081E28083CF0165E0F9
:1027C0000E942413E1CF05E316E0C80165E00E94F2
:1027D0008A13F8016181228130E040E050E0542FFB
:1027E000432F322F2227838190E0A0E0B0E0DC016C
:1027F00099278827280F391F4A1F5B1F260F311D75
:10280000411D511D848190E0A0E0B0E0B82FAA27BF
:1028100099278827280F391F4A1F5B1F622F732FA4
:10282000842F952F1F910F9108950F931F930E944E
:1028300019138823B9F08091470680FD13C0F7CFA4
:102840000E9419138823C9F08091470680FD15C0A6
:10285000F7CF0E9419138823E1F08091470680FD8D
:1028600018C0F7CF8EE396E0FC0120E2219320E32D
:10287000208362E00E942413E3CF86E08A95F1F77B
:10288000E5E3F6E081E28083CF0165E00E94241356
:10289000E0CF05E316E0C80165E00E948A13F80165
:1028A0006181228130E040E050E0542F432F322FED
:1028B0002227838190E0A0E0B0E0DC0199278827FF
:1028C000280F391F4A1F5B1F260F311D411D511D47
:1028D000848190E0A0E0B0E0B82FAA27992788274C
:1028E000280F391F4A1F5B1F622F732F842F952FCC
:1028F0001F910F9108950F931F93CF93DF93EC01D6
:102900000E9419138823B9F08091470680FD13C0F7
:10291000F7CF0E9419138823C9F08091470680FDE4
:1029200015C0F7CF0E9419138823E1F08091470664
:1029300080FD18C0F7CF8EE396E0FC0120E22193E2
:1029400020E4208362E00E942413E3CF86E08A958E
:10295000F1F7E5E3F6E081E28083CF0169E00E94D0
:102960002413E0CF05E316E0C80169E00E948A1352
:10297000F8016181228130E040E050E0542F432F84
:10298000322F2227838190E0A0E0B0E0DC0199277C
:102990008827280F391F4A1F5B1F260F311D411D35
:1029A000511D848190E0A0E0B0E0B82FAA279927BC
:1029B0008827280F391F4A1F5B1F288339834A83C2
:1029C0005B836581268130E040E050E0542F432F47
:1029D000322F2227878190E0A0E0B0E0DC01992728
:1029E0008827280F391F4A1F5B1F260F311D411DE5
:1029F000511D808590E0A0E0B0E0B82FAA2799276C
:102A00008827280F391F4A1F5B1F2C833D834E8365
:102A10005F83DF91CF911F910F9108951F920F92C5
:102A20000FB60F9211242F933F938F939F93EF93A1
:102A3000FF938091B9008832D1F0893240F480311F
:102A4000A1F08831A1F0883009F063C00EC0803455
:102A5000C1F1813420F4883309F05BC056C0803561
:102A600021F1883509F055C03EC010925206909170
:102A7000520680914806981778F4E9E4F6E0E90FE9
:102A8000F11D80818093BB00892F8F5F8093520658
:102A900085E88093BC0044C08091470681608093A4
:102AA000470684E98093BC003BC080915206909118
:102AB000BB00E9E4F6E0E80FF11D90838F5F80939F
:102AC00052062091520630E08091480690E001972E
:102AD0002817390724F485EC8093BC0021C085E8D1
:102AE0008093BC001DC09091BB0080915206E9E428
:102AF000F6E0E80FF11D9083809147068160809396
:102B0000470684E98093BC000BC085EA8093BC0033
:102B100007C08091B9008093080184E08093BC00D5
:102B2000FF91EF919F918F913F912F910F900FBE49
:102B30000F901F901895EF92FF920F931F937B01B8
:102B40008C01CA01B901A80197010E944E269C017F
:102B5000552737FD5095452F622F732F842F952FC2
:102B60001F910F91FF90EF9008952F923F924F92F7
:102B70005F926F927F928F929F92AF92BF92CF920D
:102B8000DF92EF92FF920F931F93DF93CF9300D0CA
:102B900000D0CDB7DEB729833A834B835C837B01BA
:102BA0008C01110FEE08FE2C8701262F372F482F9E
:102BB000592F6E2D7E2D8E2D9E2D00E10E9409181D
:102BC000A22EB32EC42ED52E35014601990C6608CF
:102BD000762C430129803A804B805C80550C22087A
:102BE000322C2101662D762D862D962DA980BA8056
:102BF000CB80DC80E22CF22C022D122D0E94881852
:102C0000952F622F732F842F0F900F900F900F909E
:102C1000CF91DF911F910F91FF90EF90DF90CF90B8
:102C2000BF90AF909F908F907F906F905F904F90EC
:102C30003F902F9008952F923F924F925F926F9204
:102C40007F928F929F92AF92BF92CF92DF92EF923C
:102C5000FF920F931F93DF93CF93CDB7DEB76197AA
:102C60000FB6F894DEBF0FBECDBF482F592F862F69
:102C7000972FA42FB52FBC01CD0199233CF490953B
:102C80008095709561957F4F8F4F9F4F2FE738E468
:102C900046E050E00E94B626372F482F592F862F46
:102CA000932FA42FB52F89839A83AB83BC83805441
:102CB0009442A340B04094F08FE798E4A6E0B0E0DF
:102CC0009C01AD01E980FA800B811C812E193F091E
:102CD000400B510B29833A834B835C8309811A8112
:102CE0002B813C81015212492140304014F4198A51
:102CF00014C08FE394E2A3E0B0E07C018D01298150
:102D00003A814B815C81E21AF30A040B150BE982CC
:102D1000FA820B831C8331E0398B69817A818B8144
:102D20009C8122E931E040E050E00E94B6262F3F2E
:102D300009F415C1822F90E0880F991F880F991F01
:102D4000FC01E052FF4F85919591A591B491498185
:102D50005A816B817C8184179507A607B70708F015
:102D600046C013C0822F90E0880F991F880F991FCB
:102D7000F801E80FF91F85919591A591B4918417F9
:102D80009507A607B70798F502C000EE10E02F5F81
:102D90002F3F41F7E4C050954095309521953F4F26
:102DA0004F4F5F4F07C050954095309521953F4F4D
:102DB0004F4F5F4F622F732F842F952F61960FB661
:102DC000F894DEBF0FBECDBFCF91DF911F910F9161
:102DD000FF90EF90DF90CF90BF90AF909F908F903B
:102DE0007F906F905F904F903F902F90089530E0CC
:102DF000B901660F771F660F771F80EE90E0FC0128
:102E0000E60FF71F2590359045905490A9014F5F2C
:102E10005F4F440F551F440F551FFC01E40FF51F72
:102E2000E590F59005911491E986FA860B871C8749
:102E30002E5F3F4F220F331F220F331FFC01E20F83
:102E4000F31FA590B590C590D49080EE94E0FC015E
:102E5000E60FF71FE590F59005911491ED82FE8243
:102E60000F831887FC01E40FF51F6590759085901E
:102E70009490FC01E20FF31FE590F59005911491F9
:102E8000C401B3012D813E814F815885621B730BB4
:102E9000840B950B29853A854B855C85221933096E
:102EA000440955090E94B5156D877E878F87988BD9
:102EB000E618F70808091909A601950189859A8578
:102EC000AB85BC85281B390B4A0B5B0BC801B701CE
:102ED0000E94B515ED84FE840F8518896E197F094F
:102EE000800B910BA218B308C408D508A601950160
:102EF0000E94B515A980BA80CB80DC80A218B308E7
:102F0000C408D508A60195010E949B1529813A8124
:102F10004B815C81E984FA840B851C852E193F095D
:102F2000400B510B0E949B157B018C016D857E85AA
:102F30008F859889A60195010E949B156E0D7F1DB6
:102F4000801F911F2D813E814F815885260F371F8D
:102F5000481F591FF988FF2009F025CF2BCFECED32
:102F6000F4E0E590F59005911491ECEDF8E0A59072
:102F7000B590C590D49060E272E981E090E06E195E
:102F80007F09800B910B22273327A9012A193B09BE
:102F90004C095D090E94B51529813A814B815C81FC
:102FA0002E193F09400B510B0E949B15A60195015C
:102FB000260F371F481F591F0989002309F0EBCE40
:102FC000F9CE605E7D468E4F9F4F0E941B1608957E
:102FD000AF92BF92CF92DF92EF92FF920F931F9327
:102FE0007B018C010E94E1175B016C01C801B701F4
:102FF0000E941B169B01AC01C601B5010E94B515CC
:103000001F910F91FF90EF90DF90CF90BF90AF9006
:103010000895EF92FF920F93DF93CF93CDB7DEB772
:1030200060970FB6F894DEBF0FBECDBFA82F002368
:1030300009F461C07E010894E11CF11C88E0F701ED
:1030400011928A95E9F729833A834B835C836D83D8
:103050007E83AF83988780E2801BE82FFF27E7FD00
:10306000F09549815A816B817C81181684F019860C
:103070001A861B861C86882799278E1B9F0B04C0E7
:10308000440F551F661F771F8A95D2F728C0202F3F
:10309000332727FD3095DB01CA01022E04C0880FBB
:1030A000991FAA1FBB1F0A94D2F789879A87AB87FB
:1030B000BC8704C07695679557954795EA95D2F7F2
:1030C0008D819E81AF81B88504C0880F991FAA1F8A
:1030D000BB1F2A95D2F7482B592B6A2B7B2B4D8788
:1030E0005E876F87788B29853A854B855C856D85F2
:1030F0007E85AF8598898A2F60960FB6F894DEBFDB
:103100000FBECDBFCF91DF910F91FF90EF9008954B
:10311000A2E7B0E0EEE8F8E10C94D126982E892ED3
:10312000712E88E0FE013196DF01682E1D926A94AF
:10313000E9F729833A834B835C836D837E839F8287
:103140009887FE013996DF011D928A95E9F7A986D5
:10315000BA86CB86DC86ED86FE860F87188B8D813E
:103160009E81AF81B885B7FD07C0E1961CAE1DAE4C
:103170001EAE1FAEE19764C0219581E0121608F0E3
:1031800080E0319591E0131608F090E0B32FB81B62
:1031900081E03B1708F080E0982B419531E0141650
:1031A00008F030E0A42FA91B81E04A1708F080E066
:1031B000382B519591E0151608F090E0F52FF31B90
:1031C00081E05F1708F080E0982B619531E01616DA
:1031D00008F030E0E62FE91B81E06E1708F080E090
:1031E000382B719541E0171608F040E0572F531B1C
:1031F00081E0751708F080E0482B892D819591E0DA
:10320000181608F090E0682E641A462D31E08615F5
:1032100008F030E0932B882D8195891B2983BA8390
:10322000AB83FC83ED835E834F8388872FEF3FEF73
:103230004FEF5FEFE1962CAF3DAF4EAF5FAFE19741
:103240008D859E85AF85B889B7FF6AC0E1964CAD84
:103250005DAD6EAD7FADE1974095509560957095F1
:10326000E1964CAF5DAF6EAF7FAFE197A19481E087
:103270001A1408F080E0B19491E01B1408F090E07B
:103280006B2D681B81E0B61608F080E0982BC19486
:1032900021E01C1408F020E05C2D591B81E0C516CC
:1032A00008F080E0282BD19491E01D1408F090E004
:1032B0004D2D421B81E0D41608F080E0982BE1945C
:1032C00021E01E1408F020E03E2D391B81E0E316BA
:1032D00008F080E0282BF19491E01F1408F090E0B2
:1032E0007F2D721B272F81E0F71608F080E0982BC6
:1032F000019511E0101608F010E0802F891B982F1F
:1033000081E0091708F080E0182B872D8195811B3B
:10331000A9866A875B874C873D872E879F87888B26
:1033200099812A813B814C815D816E817F81A88555
:10333000B9851A850B85FC84ED84DE84CF84B8883A
:1033400088E0E1E18E2E912C8C0E9D1EF401682EFA
:1033500011926A94E9F7998B2A8B3B8B4C8B5D8B8E
:103360006E8B7F8BA88F9E01275E3F4FF9011192D4
:103370008A95E9F7B98F1A8F0B8FFC8EED8EDE8E52
:10338000CF8EB8A2298C3A8C4B8C5C8CED8CFE8C49
:103390000F8D18A169887A888B889C8821966CAEDD
:1033A0007DAE8EAE9FAE21976D887E888F88988C7B
:1033B000E114F1040105110509F0D9C36214730485
:1033C0008404950408F057C100E0201600E03006A0
:1033D00001E0400600E0500688F41FEF211631049A
:1033E0004104510439F030F048E0E42EF12C012D75
:1033F000112D18C0EE24FF24870114C020E02216EE
:1034000020E0320620E0420621E0520630F038E1AA
:10341000E32EF12C012D112D05C020E1E22EF12C1F
:10342000012D112DD201C1010E2C04C0B695A79516
:10343000979587950A94D2F78F5E9E4FDC012C9169
:1034400080E290E0A0E0B0E08E199F09A00BB10BE4
:103450007C018D01E21AF10801091109E114F1045E
:1034600001051105D1F10E2C04C0220C331C441CA3
:10347000551C0A94D2F7A40193010E2C04C0220F0C
:10348000331F441F551F0A94D2F780E290E08E1933
:103490009F0921966CAC7DAC8EAC9FAC219704C08B
:1034A00096948794779467948A95D2F7622A732AC0
:1034B000842A952A2196ACACBDACCEACDFAC21976A
:1034C00004C0AA0CBB1CCC1CDD1CEA94D2F72196CC
:1034D000ACAEBDAECEAEDFAE21976201EE24FF24CE
:1034E0002996CCAEDDAEEEAEFFAE299792018101FA
:1034F000207030702D960CAF1DAF2EAF3FAF2D97C3
:10350000C401B301A70196010E9494267B018C019E
:10351000C401B30129962CAD3DAD4EAD5FAD2997E9
:103520000E949426C901DA013C014D01C401B30196
:103530002D962CAD3DAD4EAD5FAD2D970E944E2624
:103540009B01AC018701FF24EE242196ACACBDACFD
:10355000CEACDFAC2197C601AA27BB275701680173
:10356000A82AB92ACA2ADB2AA216B306C406D50697
:10357000E0F408946108710881089108A20CB31C5A
:10358000C41CD51CA214B304C404D50470F0A21644
:10359000B306C406D50648F408946108710881088A
:1035A0009108A20CB31CC41CD51CA21AB30AC40AED
:1035B000D50AC601B50129962CAD3DAD4EAD5FAD26
:1035C00029970E9494267B018C01C601B50129969A
:1035D0002CAD3DAD4EAD5FAD29970E949426C9013B
:1035E000DA015C016D01C601B5012D962CAD3DAD32
:1035F0004EAD5FAD2D970E944E269B01AC01870119
:10360000FF24EE2421968CAD9DADAEADBFAD2197CC
:10361000A070B070E82AF92A0A2B1B2BE216F306D9
:1036200004071507C0F40894A108B108C108D1081F
:10363000E20CF31C041D151DE214F304040515052A
:1036400050F0E216F3060407150728F40894A108C1
:10365000B108C108D108D3019927882786017501CF
:10366000E82AF92A0A2B1B2B2596ECAEFDAE0EAFED
:103670001FAF2597EBC4211431044104510471F4A8
:1036800061E070E080E090E020E030E040E050E079
:103690000E949426C901DA011C012D0100E02016C8
:1036A00000E0300601E0400600E0500688F41FEF1D
:1036B000211631044104510431F028F048E050E073
:1036C00060E070E017C040E050E060E070E012C0E1
:1036D00020E0221620E0320620E0420621E05206D9
:1036E00028F048E150E060E070E004C040E150E0C4
:1036F00060E070E0D201C101042E04C0B695A79528
:10370000979587950A94D2F78F5E9E4FDC012C9196
:10371000E0E2EE2EF12C012D112DD801C701841B02
:10372000950BA60BB70B821B9109A109B109009754
:10373000A105B10561F464015301A218B308C408DE
:10374000D50831E0632E712C812C912C24C1E39695
:103750008FAFE397082E04C0220C331C441C551C69
:103760000A94D2F7EE2DE81B640153010E2E04C01B
:10377000D694C794B794A7940A94D2F7A40193015E
:10378000E3960FACE39704C0220F331F441F551F6D
:103790000A94D2F721966CAC7DAC8EAC9FAC21978D
:1037A0000E2E04C096948794779467940A94D2F767
:1037B00084017301E22AF32A042B152BE9AEFAAE39
:1037C0000BAF1CAF32018824992492018101207033
:1037D000307061960CAF1DAF2EAF3FAF6197C60141
:1037E000B501A40193010E9494267B018C01C601BE
:1037F000B501A40193010E949426C901DA016596DE
:103800008CAF9DAFAEAFBFAF6597BC01CD016196E8
:103810002CAD3DAD4EAD5FAD61970E944E269B0134
:10382000AC018701FF24EE24A9ACBAACCBACDCAC74
:10383000C601AA27BB275C016D01AE28BF28C02A9C
:10384000D12AA216B306C406D50660F565966CADFE
:103850007DAD8EAD9FAD65976150704080409040CA
:1038600065966CAF7DAF8EAF9FAF6597A20CB31C12
:10387000C41CD51CA214B304C404D50498F0A21629
:10388000B306C406D50670F4615070408040904085
:1038900065966CAF7DAF8EAF9FAF6597A20CB31CE2
:1038A000C41CD51CA21AB30AC40AD50AC601B501A4
:1038B000A40193010E9494267B018C01C601B501ED
:1038C000A40193010E949426C901DA013C014D0133
:1038D000C401B30161962CAD3DAD4EAD5FAD6197B6
:1038E0000E944E269B01AC018701FF24EE2489AD86
:1038F0009AADABADBCADA070B07057016801A82AFD
:10390000B92ACA2ADB2AA216B306C406D506E0F4F1
:1039100008946108710881089108A20CB31CC41CAA
:10392000D51CA214B304C404D50470F0A216B306C7
:10393000C406D50648F40894610871088108910806
:10394000A20CB31CC41CD51C21968CAD9DADAEAD94
:10395000BFAD2197E3960FACE39704C0880F991F82
:10396000AA1FBB1F0A94D2F721968CAF9DAFAEAFB2
:10397000BFAF2197A21AB30AC40AD50A6596ECAC68
:10398000FDAC0EAD1FAD6597D70199278827682A32
:10399000792A8A2A9B2A82012227332769960CAF2B
:1039A0001DAF2EAF3FAF6997A201910140705070DB
:1039B0006D962CAF3DAF4EAF5FAF6D97C601B501B1
:1039C00069962CAD3DAD4EAD5FAD69970E949426D2
:1039D0007B018C01C601B50169962CAD3DAD4EADA4
:1039E0005FAD69970E949426C901DA01A1968CAF58
:1039F0009DAFAEAFBFAFA197BC01CD016D962CAD11
:103A00003DAD4EAD5FAD6D970E944E269B01AC0162
:103A10008701FF24EE242196ACACBDACCEACDFAC6C
:103A20002197C601AA27BB2757016801A82AB92AEE
:103A3000CA2ADB2AA216B306C406D50660F5A196EB
:103A40006CAD7DAD8EAD9FADA19761507040804053
:103A50009040A1966CAF7DAF8EAF9FAFA197A20CA7
:103A6000B31CC41CD51CA214B304C404D50498F020
:103A7000A216B306C406D50670F4615070408040AB
:103A80009040A1966CAF7DAF8EAF9FAFA197A20C77
:103A9000B31CC41CD51CA21AB30AC40AD50AC60199
:103AA000B50169962CAD3DAD4EAD5FAD69970E94F5
:103AB00094267B018C01C601B50169962CAD3DAD04
:103AC0004EAD5FAD69970E949426C901DA015C0191
:103AD0006D01C601B5016D962CAD3DAD4EAD5FAD2E
:103AE0006D970E944E269B01AC018701FF24EE24B6
:103AF00021968CAD9DADAEADBFAD2197A070B070DD
:103B0000E82AF92A0A2B1B2BE216F30604071507ED
:103B1000C0F40894A108B108C108D108E20CF31C54
:103B2000041D151DE214F3040405150550F0E216FA
:103B3000F3060407150728F40894A108B108C10882
:103B4000D108A196ECACFDAC0EAD1FADA197D7018D
:103B50009927882796018501082B192B2A2B3B2BA7
:103B600025960CAF1DAF2EAF3FAF259772C26E14D6
:103B70007F048006910608F45FC220E0E21620E090
:103B8000F20621E0020720E0120788F43FEFE31677
:103B9000F1040105110531F028F048E050E060E043
:103BA00070E017C040E050E060E070E012C040E01C
:103BB000E41640E0F40640E0040741E0140728F072
:103BC00048E150E060E070E004C040E150E060E0B7
:103BD00070E0D801C701042E04C0B695A79597954B
:103BE00087950A94D2F78F5E9E4FDC012C9130E2CC
:103BF000A32EB12CC12CD12CD601C501841B950B51
:103C0000A60BB70B821B9109A109B1090097A10569
:103C1000B10599F4E614F7040805190508F4FEC186
:103C200021966CAC7DAC8EAC9FAC21976214730472
:103C30008404950408F0F2C1FFC1E2968FAFE297C9
:103C4000082E04C0EE0CFF1C001F111F0A94D2F7AF
:103C50006A2D681BD201C101062E04C0B695A79536
:103C6000979587950A94D2F75C016D01AE28BF281D
:103C7000C02AD12AADAABEAACFAAD8AE72016101CC
:103C8000E2960FACE29704C0CC0CDD1CEE1CFF1CCE
:103C90000A94D2F7C9AADAAAEBAAFCAA64015301D2
:103CA000062E04C0D694C794B794A7940A94D2F76A
:103CB000D401C301E2960FACE29704C0880F991FAC
:103CC000AA1FBB1F0A94D2F72196ECACFDAC0EAD37
:103CD0001FAD219704C016950795F794E7946A9550
:103CE000D2F737014801682A792A8A2A9B2A6DA6C9
:103CF0007EA68FA698AAEDA8FEA80FA918AD380138
:103D0000882499249801870120703070A5960CAF03
:103D10001DAF2EAF3FAFA597C601B501A40193011A
:103D20000E9494267B018C01C601B501A401930178
:103D30000E949426C901DA011C012D01C201B101C2
:103D4000A5962CAD3DAD4EAD5FADA5970E944E261C
:103D50009B01AC018701FF24EE24ADA4BEA4CFA437
:103D6000D8A8C601AA27BB2757016801A82AB92AE3
:103D7000CA2ADB2AA216B306C406D50600F50894A3
:103D80002108310841085108EDA8FEA80FA918AD77
:103D9000AE0CBF1CC01ED11EAE14BF04C006D1069F
:103DA00070F0A216B306C406D50648F4089421089C
:103DB000310841085108AE0CBF1CC01ED11EA21A0A
:103DC000B30AC40AD50AC601B501A40193010E9431
:103DD00094267B018C01C601B501A40193010E94C8
:103DE0009426C901DA013C014D01C401B301A59635
:103DF0002CAD3DAD4EAD5FADA5970E944E269B010B
:103E0000AC018701FF24EE248DA59EA5AFA5B8A91E
:103E1000A070B07057016801A82AB92ACA2ADB2A03
:103E2000A216B306C406D50600F508946108710809
:103E3000810891086DA97EA98FA998ADA60EB71E1D
:103E4000C81ED91EA616B706C806D90670F0A21657
:103E5000B306C406D50648F40894610871088108C1
:103E60009108A60EB71EC81ED91ED601C501821B19
:103E7000930BA40BB50B89A79AA7ABA7BCA7D1013D
:103E80009927882764015301A82AB92ACA2ADB2A5C
:103E90002596ACAEBDAECEAEDFAE259786017501E0
:103EA0002FEF3FEF40E050E0E222F32204231523FE
:103EB000A60166277727AD964CAF5DAF6EAF7FAF9B
:103EC000AD97A9A8BAA8CBA8DCA86FEF7FEF80E0D8
:103ED00090E0A622B722C822D92289A99AA9ABA923
:103EE000BCA91D0144245524C801B701A6019501B0
:103EF0000E944E26A9966CAF7DAF8EAF9FAFA9975B
:103F0000C801B701A20191010E944E263B014C015C
:103F1000AD966CAD7DAD8EAD9FADAD97A601950113
:103F20000E944E267B018C01AD966CAD7DAD8EADB1
:103F30009FADAD97A20191010E944E265B016C01DD
:103F4000A8019701260D371D481D591DA9966CAC77
:103F50007DAC8EAC9FACA997C401AA27BB27280FC4
:103F6000391F4A1F5B1F2E153F054007510748F4B4
:103F7000E12CF12C61E0062F112DAE0CBF1CC01EF0
:103F8000D11ECA01AA27BB27BC01CD016A0D7B1D2A
:103F90008C1D9D1D69A47AA48BA49CA4661677062B
:103FA0008806990650F1661577058805990509F088
:103FB0004DC0D90199278827A9962CAD3DAD4EADAE
:103FC0005FADA99740705070820F931FA41FB51F5B
:103FD00021962CAD3DAD4EAD5FAD2197E2960FAC75
:103FE000E29704C0220F331F441F551F0A94D2F7D3
:103FF000281739074A075B0748F525960CAD1DAD14
:104000002EAD3FAD25970150104020403040259601
:104010000CAF1DAF2EAF3FAF259718C06624772495
:10402000430121E030E040E050E025962CAF3DAF69
:104030004EAF5FAF25970DC06624772443012596C8
:104040001CAE1DAE1EAE1FAE259703C0662477249E
:104050004301FE01B19688E0DF011D928A95E9F7E0
:104060002596ACACBDACCEACDFAC2597A9A2BAA26C
:10407000CBA2DCA26DA27EA28FA298A622962FAD23
:1040800022973AA14BA15CA1662D7EA1DFA098A545
:10409000E196ECACFDAC0EAD1FADE197E114F1047F
:1040A0000105110509F456C0219581E0121608F0AA
:1040B00080E03195E1E0131608F0E0E0932E981AC5
:1040C00081E0391508F080E0E82B4195F1E0141605
:1040D00008F0F0E0A42EAE1A81E04A1508F080E066
:1040E000F82B5195E1E0151608F0E0E0B52EBF1A67
:1040F00081E05B1508F080E0E82B6195F1E0161691
:1041000008F0F0E0A62FAE1B81E06A1708F080E00F
:10411000F82B7195E1E0171608F0E0E0C72ECF1AF2
:1041200081E07C1508F080E0E82B8D2D8195F1E091
:10413000181608F0F0E0D82EDE1AE1E08D1508F030
:10414000E0E0FE2B892F8195392DA5016A2F7C2D6A
:10415000982F9F1B8D2DCE58DF4FE2E10C94ED265A
:10416000A0E0B0E0E6EBF0E20C94D126DC012B01FC
:10417000FA019C91923008F439C1EB0188818230B8
:1041800008F433C1943069F4843009F02FC11196DA
:104190009C9111978981981709F428C1A9E0B1E091
:1041A00025C1843009F421C18230A9F4923009F08C
:1041B0001DC19A01AD0188E0EA010990AE01E90153
:1041C00009929E018150C1F7E201898111969C916B
:1041D0008923818308C1923009F407C112962D907A
:1041E0003C901397EB018A819B811496AD90BD9012
:1041F000CD90DC901797EC80FD800E811F8191019E
:10420000281B390BB90137FF04C066277727621BCB
:10421000730B603271050CF061C0121613066CF559
:1042200037014801062E04C09694879477946794CA
:104230000A94D2F721E030E040E050E004C0220FC1
:10424000331F441F551F6A95D2F72150304040401C
:1042500050402E213F214023512321153105410596
:10426000510521F021E030E040E050E079018A0181
:10427000E628F728082919293CC0232BD1F1260E5E
:10428000371E35014601062E04C096948794779414
:1042900067940A94D2F721E030E040E050E004C097
:1042A000220F331F441F551F6A95D2F7215030400B
:1042B000404050402A213B214C215D2121153105F0
:1042C0004105510521F021E030E040E050E0590186
:1042D0006A01A628B728C828D9280BC082159305DB
:1042E0002CF01C01AA24BB24650103C0EE24FF248A
:1042F000870111969C91D20111968C91981709F41F
:1043000045C0992339F0A80197012A193B094C09A6
:104310005D0906C0A60195012E193F09400B510BFE
:1043200057FD08C01182338222822483358346835D
:1043300057831DC081E08183338222828827992799
:10434000DC01821B930BA40BB50B84839583A6839E
:10435000B7830DC0220F331F441F551F248335839D
:10436000468357838281938101979383828324813B
:10437000358146815781DA01C9010197A109B10947
:104380008F5F9F4FAF4FBF4328F30BC091833382A2
:104390002282EA0CFB1C0C1D1D1DE482F5820683A3
:1043A000178383E08083248135814681578157FFBD
:1043B0001AC0C901AA2797FDA095BA2F81709070E5
:1043C000A070B0705695479537952795822B932B03
:1043D000A42BB52B84839583A683B7838281938195
:1043E000019693838283DF0101C0D201CD01CDB755
:1043F000DEB7E2E10C94ED26A0E2B0E0E2E0F2E20A
:104400000C94DD2669837A838B839C832D833E8382
:104410004F835887E9E0EE2EF12CEC0EFD1ECE0105
:104420000196B7010E94D6258E010F5E1F4FCE0167
:104430000596B8010E94D6258A8991E089278A8B42
:10444000C701B801AE01475E5F4F0E94B0200E94D5
:104450000125A096E6E00C94F926A0E2B0E0E3E3A3
:10446000F2E20C94DD2669837A838B839C832D830F
:104470003E834F835887F9E0EF2EF12CEC0EFD1EA2
:10448000CE010196B7010E94D6258E010F5E1F4F07
:10449000CE010596B8010E94D625C701B801AE012C
:1044A000475E5F4F0E94B0200E940125A096E6E083
:1044B0000C94F926A0E2B0E0E0E6F2E20C94D126FA
:1044C00069837A838B839C832D833E834F835887B4
:1044D000CE010196BE01675F7F4F0E94D625CE01B7
:1044E0000596BE016F5E7F4F0E94D625998592305A
:1044F00088F089898230C8F0943019F4823051F400
:1045000004C0843029F4923081F489E091E0C6C07F
:10451000923049F420E09A858A89981321E02A870D
:10452000CE010996BBC0823049F420E09A858A8981
:10453000981321E02A8BCE014196B0C02D843E8491
:104540004F8458886D887E888F88988CEE24FF244D
:104550008701AA24BB24650140E050E060E070E0E0
:10456000E0E0F0E0C10181709070892BE9F0E60C89
:10457000F71C081D191D9A01AB012A0D3B1D4C1D8E
:104580005D1D80E090E0A0E0B0E0E614F7040805CF
:10459000190520F481E090E0A0E0B0E0BA01A901A3
:1045A000480F591F6A1F7B1FAA0CBB1CCC1CDD1CAB
:1045B00097FE08C081E090E0A0E0B0E0A82AB92A08
:1045C000CA2ADB2A3196E032F10549F0660C771CE5
:1045D000881C991C5694479437942794C3CFFA8526
:1045E000EA892B893C898B859C85280F391F2E5F92
:1045F0003F4F17C0CA0181709070892B61F01695EA
:104600000795F794E79480E090E0A0E0B0E8E82A0E
:10461000F92A0A2B1B2B76956795579547952F5F9F
:104620003F4F77FDE7CF0CC0440F551F661F771F24
:1046300017FD4160EE0CFF1C001F111F2150304080
:10464000403090E0590790E0690790E4790760F303
:104650002B8F3C8FDB01CA018F779070A070B070F8
:1046600080349105A105B10561F447FD0AC0E1144C
:10467000F1040105110529F0405C5F4F6F4F7F4F3A
:1046800040781A8EFE1711F081E08A8F4D8F5E8F71
:104690006F8F78A383E0898FCE0149960E94012510
:1046A000A096E2E10C94ED26A8E1B0E0EAE5F3E2A1
:1046B0000C94D92669837A838B839C832D833E83D4
:1046C0004F835887B9E0EB2EF12CEC0EFD1ECE0186
:1046D0000196B7010E94D6258E010F5E1F4FCE01B5
:1046E0000596B8010E94D6252985223008F47EC09F
:1046F0003989323010F4B8017CC08A859A898927BB
:104700008A87243011F0223031F4231709F06EC06B
:1047100069E071E06EC0343039F41D861E861F8654
:10472000188A1C861B8604C0323021F484E08987F5
:10473000B7015FC02B853C858B899C89281B390B71
:104740003C872B87ED84FE840F851889AD88BE8851
:10475000CF88D88CEA14FB040C051D0540F4EE0C40
:10476000FF1C001F111F215030403C872B8720E089
:1047700030E040E050E080E090E0A0E0B0E460E0B5
:1047800070E0EA14FB040C051D0540F0282B392BC2
:104790004A2B5B2BEA18FB080C091D09B695A79557
:1047A00097958795EE0CFF1C001F111F6F5F7F4FC1
:1047B0006F31710531F7DA01C9018F779070A07000
:1047C000B07080349105A105B10561F427FD0AC0E0
:1047D000E114F1040105110529F0205C3F4F4F4F12
:1047E0005F4F20782D873E874F87588BBE01675FCC
:1047F0007F4FCB010E9401256896EAE00C94F526D4
:10480000A8E0B0E0E6E0F4E20C94DA269B01AC010B
:1048100083E08983DA01C9018827B7FD8395992749
:10482000AA27BB27B82E211531054105510519F4DA
:1048300082E089833AC08823A9F0203080E03807DD
:1048400080E0480780E8580729F460E070E080E0E5
:104850009FEC30C0EE24FF248701E21AF30A040B18
:10486000150B02C079018A018EE1C82ED12CDC82A1
:10487000CB82ED82FE820F831887C801B7010E94A8
:10488000B22401971816190684F4082E04C0EE0C01
:10489000FF1C001F111F0A94D2F7ED82FE820F83C6
:1048A0001887C81AD90ADC82CB82BA82CE01019657
:1048B0000E9401252896E9E00C94F626ACE0B0E0D1
:1048C000E4E6F4E20C94E12669837A838B839C838B
:1048D000CE010196BE016B5F7F4F0E94D6258D8170
:1048E000823061F1823050F1843021F48E8188234E
:1048F00051F12EC02F81388537FD20C06E812F31B8
:1049000031051CF06623F9F023C08EE190E0821B94
:10491000930B29853A854B855C8504C05695479550
:10492000379527958A95D2F76623B1F05095409533
:10493000309521953F4F4F4F5F4F0EC020E030E044
:1049400040E050E009C02FEF3FEF4FEF5FE704C0BA
:1049500020E030E040E050E8B901CA012C96E2E0E6
:104960000C94FD26EF92FF920F931F937B018C0115
:1049700080E0E81680E0F80681E0080780E018078C
:1049800088F48FEFE816F1040105110531F028F0E5
:1049900088E090E0A0E0B0E017C080E090E0A0E008
:1049A000B0E012C080E0E81680E0F80680E008077A
:1049B00081E0180728F088E190E0A0E0B0E004C0B2
:1049C00080E190E0A0E0B0E020E230E040E050E0A4
:1049D000281B390B4A0B5B0B04C016950795F794FF
:1049E000E7948A95D2F7F701EF5EFE4F8081281B8E
:1049F000310941095109C9011F910F91FF90EF90B1
:104A00000895DF92EF92FF920F931F93FC01E480D1
:104A1000F58006811781D1808081823048F480E062
:104A200090E0A0E1B0E0E82AF92A0A2B1B2BA5C0F0
:104A3000843009F49FC0823021F4EE24FF248701E2
:104A400005C0E114F1040105110519F4E0E0F0E0FE
:104A500096C0628173819FEF623879070CF05BC06A
:104A600022E83FEF261B370B2A3131052CF020E0DE
:104A700030E040E050E02AC0B801A701022E04C097
:104A800076956795579547950A94D2F781E090E01F
:104A9000A0E0B0E004C0880F991FAA1FBB1F2A9591
:104AA000D2F70197A109B1098E219F21A023B1233B
:104AB0000097A105B10521F081E090E0A0E0B0E011
:104AC0009A01AB01282B392B4A2B5B2BDA01C90148
:104AD0008F779070A070B07080349105A105B105FA
:104AE00039F427FF09C0205C3F4F4F4F5F4F04C090
:104AF000215C3F4F4F4F5F4FE0E0F0E02030A0E0FF
:104B00003A07A0E04A07A0E45A0710F0E1E0F0E01D
:104B100079018A0127C06038710564F5FB01E1580D
:104B2000FF4FD801C7018F779070A070B0708034AC
:104B30009105A105B10539F4E7FE0DC080E490E0D0
:104B4000A0E0B0E004C08FE390E0A0E0B0E0E80EA9
:104B5000F91E0A1F1B1F17FF05C016950795F7942E
:104B6000E794319687E016950795F794E7948A9530
:104B7000D1F705C0EE24FF248701EFEFF0E06E2FA0
:104B8000679566276795902F9F77D794DD24D794F4
:104B90008E2F8695492F462B582F5D29B701CA01C4
:104BA0001F910F91FF90EF90DF900895FC01DB01C2
:104BB000408151812281622F6F7770E0221F22276E
:104BC000221F9381892F880F822B282F30E0991F75
:104BD0009927991F11969C93119721153105A9F5D5
:104BE000411551056105710511F482E037C082E875
:104BF0009FEF13969C938E9312979A01AB0167E0F7
:104C0000220F331F441F551F6A95D1F783E08C9301
:104C10000DC0220F331F441F551F12968D919C917A
:104C20001397019713969C938E931297203080E0F0
:104C3000380780E0480780E4580758F314962D930E
:104C40003D934D935C93179708952F3F310579F469
:104C5000411551056105710519F484E08C9308959F
:104C600064FF03C081E08C9312C01C9210C02F57C8
:104C7000304013963C932E93129783E08C9387E0F9
:104C8000440F551F661F771F8A95D1F770641496DD
:104C90004D935D936D937C9317970895629FD00118
:104CA000739FF001829FE00DF11D649FE00DF11DE7
:104CB000929FF00D839FF00D749FF00D659FF00D96
:104CC0009927729FB00DE11DF91F639FB00DE11D83
:104CD000F91FBD01CF0111240895AA1BBB1B51E18F
:104CE00007C0AA1FBB1FA617B70710F0A61BB70B5C
:104CF000881F991F5A95A9F780959095BC01CD0101
:104D0000089597FB092E07260AD077FD04D0E5DF2A
:104D100006D000201AF4709561957F4F0895F6F73C
:104D2000909581959F4F0895A1E21A2EAA1BBB1B57
:104D3000FD010DC0AA1FBB1FEE1FFF1FA217B30767
:104D4000E407F50720F0A21BB30BE40BF50B661F7D
:104D5000771F881F991F1A9469F760957095809541
:104D600090959B01AC01BD01CF01089597FB092EE1
:104D700005260ED057FD04D0D7DF0AD0001C38F42A
:104D800050954095309521953F4F4F4F5F4F089577
:104D9000F6F790958095709561957F4F8F4F9F4F57
:104DA00008952F923F924F925F926F927F928F92CF
:104DB0009F92AF92BF92CF92DF92EF92FF920F93AA
:104DC0001F93CF93DF93CDB7DEB7CA1BDB0B0FB6B4
:104DD000F894DEBF0FBECDBF09942A883988488871
:104DE0005F846E847D848C849B84AA84B984C88407
:104DF000DF80EE80FD800C811B81AA81B981CE0FFE
:104E0000D11D0FB6F894DEBF0FBECDBFED010895E2
:104E1000EE0FFF1F0590F491E02D0994F894FFCF59
:104E20006465627574000100F80000000000000075
:104E30000000010202030303030404040404040445
:104E40000405050505050505050505050505050513
:104E500005060606060606060606060606060606F3
:104E600006060606060606060606060606060606E2
:104E700006070707070707070707070707070707C3
:104E800007070707070707070707070707070707B2
:104E900007070707070707070707070707070707A2
:104EA0000707070707070707070707070707070792
:104EB0000708080808080808080808080808080873
:104EC0000808080808080808080808080808080862
:104ED0000808080808080808080808080808080852
:104EE0000808080808080808080808080808080842
:104EF0000808080808080808080808080808080832
:104F00000808080808080808080808080808080821
:104F10000808080808080808080808080808080811
:104F20000808080808080808080808080808080801
:024F3000080077
:00000001FF
