:100000000C9434000C9453000C9451000C94510047
:100010000C9451000C9451000C9451000C9451001C
:100020000C9451000C9451000C9451000C9451000C
:100030000C9451000C941E090C9451000C94510026
:100040000C9451000C9451000C9485020C945100B6
:100050000C9451000C9451000C9451000C945100DC
:100060000C9451000C94510011241FBECFEFD8E026
:10007000DEBFCDBF11E0A0E0B1E0ECE1F3E102C0F2
:1000800005900D92A432B107D9F711E0A4E2B1E0D6
:1000900001C01D92A236B107E1F70E94CB000C947B
:1000A0008C090C9400001F920F920FB60F9211242E
:1000B000EF92FF920F931F932F933F934F935F9372
:1000C0006F937F938F939F93AF93BF93EF93FF9320
:1000D000F8940E94F708609325017093260180939D
:1000E0002701909328012091290130912A01409104
:1000F0002B0150912C017B018C01E21AF30A040BB5
:10010000150BA8019701E0921B01F0921C010093CE
:100110001D0110931E016093290170932A018093A1
:100120002B0190932C0180912401882381F110925E
:1001300024018091170190911801A0911901B091AB
:100140001A018093130190931401A0931501B093A9
:100150001601209317013093180140931901509311
:100160001A017894FF91EF91BF91AF919F918F9178
:100170007F916F915F914F913F912F911F910F91BF
:10018000FF90EF900F900FBE0F901F90189581E099
:1001900080932401CECFEF92FF920F931F930E9482
:1001A000E6080E94F902209A219A229A8091690019
:1001B000826080936900809169008E7F80936900DE
:1001C000E89A3998419A80EA96E8A1E0B0E08093F5
:1001D000360190933701A0933801B093390180E044
:1001E00091E00E94650483E091E00E946504E09143
:1001F0001F01F09120011BC00E94F708E0911F0130
:10020000F09120019F0140E050E0E0903101F0903A
:10021000320100913301109134012E0D3F1D401F1A
:10022000511F261737074807590708F4DFC0E55B59
:10023000F541B0F10E94F70820912101309122018F
:1002400040E050E0E0902D01F0902E0100912F0150
:10025000109130012E0D3F1D401F511F26173707EB
:100260004807590748F60E94F70860932D017093DC
:100270002E0180932F019093300180911F01909166
:10028000200127E28131920728F42AE08B3D920772
:1002900008F4B2CF01979093200180931F01ACCF57
:1002A00084EB95E19093200180931F010E94F70851
:1002B00020911F013091200140E050E0E090310199
:1002C000F090320100913301109134012E0D3F1D49
:1002D000401F511F261737074807590738F706B13F
:1002E00010E0C8010E9400058DE091E00E940E031D
:1002F00002701070C801969587950E9400058DE0E8
:1003000091E00E940E0380E090E00E942D0681E0C3
:1003100090E00E942D0682E090E00E942D0683E08E
:1003200090E00E942D0684E090E00E942D0685E07A
:1003300090E00E942D0686E090E00E942D068FE05E
:1003400091E00E940E0380911F01909120010E9474
:10035000000581E191E00E940E0360911701709108
:1003600018018091190190911A010E945A078FE09B
:1003700091E00E940E0320911701309118014091E5
:10038000190150911A0160E472E48FE090E00E943C
:100390006A09DA01C9010E9429030E94F7086093E3
:1003A0003101709332018093330190933401809135
:1003B0003501882329F42A988F5F8093350176CF01
:1003C000813061F0823061F0833061F0843061F01F
:1003D000289A853088F31092350168CF299AECCF9E
:1003E0002898EACF2A9AE8CF2998E6CF06B110E0FC
:1003F000C8010E9400058DE091E00E940E0302708A
:100400001070C801969587950E9400058DE091E0D7
:100410000E940E0380E090E00E942D0681E090E0B3
:100420000E942D0682E090E00E942D0683E090E07D
:100430000E942D0684E090E00E942D0685E090E069
:100440000E942D0686E090E00E942D068FE091E04C
:100450000E940E0380911F01909120010E940005CF
:1004600081E191E00E940E036091170170911801E3
:100470008091190190911A010E945A078FE091E032
:100480000E940E032091170130911801409119012B
:1004900050911A0160E472E48FE090E00E946A09D2
:1004A000DA01C9010E9429030E94F7086093310113
:1004B0007093320180933301909334018091350120
:1004C000882349F42A988F5F80933501E0911F01BA
:1004D000F0912001ACCE813081F08230A1F08330E8
:1004E00081F0843061F0289A853068F310923501EC
:1004F000E0911F01F09120019ACE299AE4CF29982A
:10050000E2CF2A9AE0CF2898DECF1F920F920FB643
:100510000F9211242F933F934F935F936F937F9389
:100520008F939F93AF93BF93EF93FF934091C60038
:10053000E0915A01F0915B01CF01019660E270E019
:100540000E9457099C0180915C0190915D012817E0
:10055000390739F0E65CFE4F408330935B0120930E
:100560005A01FF91EF91BF91AF919F918F917F9130
:100570006F915F914F913F912F910F900FBE0F9010
:100580001F90189580915A0190915B01809620915F
:100590005C0130915D01821B930B60E270E00E9470
:1005A0005709089540915C0150915D0180915A0175
:1005B00090915B018417950789F0FA01E65CFE4F84
:1005C0002081CA01019660E270E00E945709909371
:1005D0005D0180935C0130E0C90108952FEF3FEF8A
:1005E000C90108958091C00087FFFCCF8091C600AB
:1005F00008951092C50080E18093C400E1ECF0E022
:100600008081806880838081806180838081886030
:1006100080838EE08093C20078940895DC01EC9191
:10062000EE2371F090E08091C00085FFFCCFE09355
:10063000C6009F5FFD01E90FF11DE081EE2399F7F0
:100640000895982F8091C00085FFFCCF9093C6003D
:100650000895EF92FF920F931F93DF93CF93CDB73F
:10066000DEB7A0970FB6F894DEBF0FBECDBF9C01DA
:1006700097FD5BC02115310509F44BC000E010E087
:100680007E010894E11CF11CF701E00FF11FC90184
:100690006AE070E00E94430980830F5F1F4FC90129
:1006A0006AE070E00E9443099B016115710561F7E2
:1006B0000115110599F0F8013197EE0DFF1D8081AC
:1006C0008A30F0F5982F905D8091C00085FFFCCFB7
:1006D0009093C6003197EC17FD0789F78091C00011
:1006E00085FFFCCF8DE08093C6008091C00085FF20
:1006F000FCCF8AE08093C600A0960FB6F894DEBFC8
:100700000FBECDBFCF91DF911F910F91FF90EF9062
:1007100008958091C00085FFFCCF80E38093C600E0
:100720008091C00085FFDACFDDCF8091C00085FFCA
:10073000FCCF8DE28093C600309521953F4F9ACF34
:10074000982F995CC1CF8F929F92AF92BF92CF9218
:10075000DF92EF92FF920F931F93DF93CF93CDB76A
:10076000DEB7A0970FB6F894DEBF0FBECDBF9B01DA
:10077000AC0197FD73C069017A012115310541056E
:10078000510509F45FC0AA24BB244E010894811CC2
:10079000911C84010A0D1B1DC701B6012AE030E03F
:1007A00040E050E00E946A09F80160830894A11CAF
:1007B000B11CC701B6012AE030E040E050E00E94E1
:1007C0006A09C901DA016C017D01C114D104E10497
:1007D000F104F9F6A114B104A1F0F5013197E80D87
:1007E000F91D80818A3008F048C0982F905D809173
:1007F000C00085FFFCCF9093C6003197EC17FD0732
:1008000081F78091C00085FFFCCF8DE08093C6000A
:100810008091C00085FFFCCF8AE08093C600A0963F
:100820000FB6F894DEBF0FBECDBFCF91DF911F9101
:100830000F91FF90EF90DF90CF90BF90AF909F907F
:100840008F9008958091C00085FFFCCF80E3809356
:10085000C6008091C00085FFD4CFD7CF8091C00063
:1008600085FFFCCF8DE28093C60050954095309572
:1008700021953F4F4F4F5F4F7ECF982F995CB7CF59
:100880008091C00085FFFCCF8DE08093C6008091F1
:10089000C00085FFFCCF8AE08093C6000895982FA2
:1008A0008091C00085FFFCCF9093C6008091C0006E
:1008B00085FFFCCF8DE08093C6008091C00085FF4E
:1008C000FCCF8AE08093C6000895DC01EC91EE2312
:1008D00071F090E08091C00085FFFCCFE093C600EE
:1008E0009F5FFD01E90FF11DE081EE2399F78091F3
:1008F000C00085FFFCCF8DE08093C6008091C000D2
:1009000085FFFCCF8AE08093C6000895EF92FF92A6
:100910000F931F93DF93CF93CDB7DEB7A0970FB69A
:10092000F894DEBF0FBECDBF9C0197FD5BC02115C3
:10093000310509F44BC000E010E07E010894E11C91
:10094000F11CF701E00FF11FC9016AE070E00E949D
:10095000430980830F5F1F4FC9016AE070E00E9466
:1009600043099B016115710561F70115110599F0A6
:10097000F8013197EE0DFF1D80818A30F0F5982F38
:10098000905D8091C00085FFFCCF9093C6003197A9
:10099000EC17FD0789F78091C00085FFFCCF8DE043
:1009A0008093C6008091C00085FFFCCF8AE08093D1
:1009B000C600A0960FB6F894DEBF0FBECDBFCF9194
:1009C000DF911F910F91FF90EF9008958091C000EB
:1009D00085FFFCCF80E38093C6008091C00085FF37
:1009E000DACFDDCF8091C00085FFFCCF8DE2809310
:1009F000C600309521953F4F9ACF982F995CC1CF73
:100A0000EF92FF920F931F93DF93CF93CDB7DEB793
:100A1000A0970FB6F894DEBF0FBECDBF9C01009724
:100A2000B1F100E010E07E010894E11CF11CF70137
:100A3000E00FF11FC9016AE070E00E944309808362
:100A40000F5F1F4FC9016AE070E00E9443099B01DC
:100A50006115710561F70115110501F1F801319773
:100A6000EE0DFF1D80818A3078F4982F905D809183
:100A7000C00085FFFCCF9093C6003197EC17FD07AF
:100A800069F080818A3088F3982F995CF0CF80914B
:100A9000C00085FFFCCF80E38093C600A0960FB610
:100AA000F894DEBF0FBECDBFCF91DF911F910F91A4
:100AB000FF90EF900895EF92FF920F931F93DF93B3
:100AC000CF93CDB7DEB7A0970FB6F894DEBF0FBEB9
:100AD000CDBF9C010097B1F100E010E07E010894C9
:100AE000E11CF11CF701E00FF11FC9016AE070E0A1
:100AF0000E94430980830F5F1F4FC9016AE070E0C5
:100B00000E9443099B016115710561F701151105EB
:100B100001F1F8013197EE0DFF1D80818A3078F4E4
:100B2000982F905D8091C00085FFFCCF9093C60008
:100B30003197EC17FD0769F080818A3088F3982F90
:100B4000995CF0CF8091C00085FFFCCF80E380935B
:100B5000C6008091C00085FFFCCF8DE08093C60069
:100B60008091C00085FFFCCF8AE08093C600A096EC
:100B70000FB6F894DEBF0FBECDBFCF91DF911F91AE
:100B80000F91FF90EF900895EF92FF920F931F93B4
:100B9000DF93CF93CDB7DEB7A0970FB6F894DEBF43
:100BA0000FBECDBF9C0197FD4DC021153105B1F1A0
:100BB00000E010E07E010894E11CF11CF701E00F59
:100BC000F11FC9016AE070E00E94430980830F5F52
:100BD0001F4FC9016AE070E00E9443099B01611543
:100BE000710561F70115110501F1F8013197EE0D5D
:100BF000FF1D80818A3078F4982F905D8091C0002D
:100C000085FFFCCF9093C6003197EC17FD0769F084
:100C100080818A3088F3982F995CF0CF8091C00052
:100C200085FFFCCF80E38093C600A0960FB6F894B2
:100C3000DEBF0FBECDBFCF91DF911F910F91FF900F
:100C4000EF9008958091C00085FFFCCF8DE28093E6
:100C5000C600309521953F4FA8CFEF92FF920F939A
:100C60001F93DF93CF93CDB7DEB7A0970FB6F8945D
:100C7000DEBF0FBECDBF9C010097B1F100E010E0D8
:100C80007E010894E11CF11CF701E00FF11FC9017E
:100C90006AE070E00E94430980830F5F1F4FC90123
:100CA0006AE070E00E9443099B016115710561F7DC
:100CB0000115110501F1F8013197EE0DFF1D80813D
:100CC0008A3078F4982F905D8091C00085FFFCCF2A
:100CD0009093C6003197EC17FD0769F080818A3048
:100CE00088F3982F995CF0CF8091C00085FFFCCFEE
:100CF00080E38093C600A0960FB6F894DEBF0FBEC7
:100D0000CDBFCF91DF911F910F91FF90EF9008958C
:100D1000EF92FF920F931F93DF93CF93CDB7DEB780
:100D2000A0970FB6F894DEBF0FBECDBF9C01009711
:100D3000B1F100E010E07E010894E11CF11CF70124
:100D4000E00FF11FC9016AE070E00E94430980834F
:100D50000F5F1F4FC9016AE070E00E9443099B01C9
:100D60006115710561F70115110501F1F801319760
:100D7000EE0DFF1D80818A3078F4982F905D809170
:100D8000C00085FFFCCF9093C6003197EC17FD079C
:100D900069F080818A3088F3982F995CF0CF809138
:100DA000C00085FFFCCF80E38093C6008091C00027
:100DB00085FFFCCF8DE08093C6008091C00085FF49
:100DC000FCCF8AE08093C600A0960FB6F894DEBFF1
:100DD0000FBECDBFCF91DF911F910F91FF90EF908C
:100DE0000895EF92FF920F931F93DF93CF93CDB7A8
:100DF000DEB7A0970FB6F894DEBF0FBECDBF9C0143
:100E000097FD4DC021153105B1F100E010E07E01E4
:100E10000894E11CF11CF701E00FF11FC9016AE021
:100E200070E00E94430980830F5F1F4FC9016AE091
:100E300070E00E9443099B016115710561F701157E
:100E4000110501F1F8013197EE0DFF1D80818A3007
:100E500078F4982F905D8091C00085FFFCCF90932F
:100E6000C6003197EC17FD0769F080818A3088F35E
:100E7000982F995CF0CF8091C00085FFFCCF80E374
:100E80008093C600A0960FB6F894DEBF0FBECDBF0C
:100E9000CF91DF911F910F91FF90EF900895809176
:100EA000C00085FFFCCF8DE28093C6003095219570
:100EB0003F4FA8CF8F929F92AF92BF92CF92DF9277
:100EC000EF92FF920F931F93DF93CF93CDB7DEB7CF
:100ED000A0970FB6F894DEBF0FBECDBF6B017C01AB
:100EE000611571058105910509F443C0AA24BB244D
:100EF0004E010894811C911C84010A0D1B1DC70121
:100F0000B6012AE030E040E050E00E946A09F801B2
:100F100060830894A11CB11CC701B6012AE030E02F
:100F200040E050E00E946A09C901DA016C017D01CC
:100F3000C114D104E104F104F9F6A114B10401F1E2
:100F4000F5013197E80DF91D80818A3078F4982FEA
:100F5000905D8091C00085FFFCCF9093C6003197D3
:100F6000EC17FD0769F080818A3088F3982F995C2F
:100F7000F0CF8091C00085FFFCCF80E38093C60056
:100F8000A0960FB6F894DEBF0FBECDBFCF91DF9114
:100F90001F910F91FF90EF90DF90CF90BF90AF9097
:100FA0009F908F9008958F929F92AF92BF92CF9211
:100FB000DF92EF92FF920F931F93DF93CF93CDB702
:100FC000DEB7A0970FB6F894DEBF0FBECDBF6B01A2
:100FD0007C01611571058105910509F443C0AA24BE
:100FE000BB244E010894811C911C84010A0D1B1D19
:100FF000C701B6012AE030E040E050E00E946A09F3
:10100000F80160830894A11CB11CC701B6012AE055
:1010100030E040E050E00E946A09C901DA016C0149
:101020007D01C114D104E104F104F9F6A114B10465
:1010300001F1F5013197E80DF91D80818A3078F4CE
:10104000982F905D8091C00085FFFCCF9093C600E3
:101050003197EC17FD0769F080818A3088F3982F6B
:10106000995CF0CF8091C00085FFFCCF80E3809336
:10107000C6008091C00085FFFCCF8DE08093C60044
:101080008091C00085FFFCCF8AE08093C600A096C7
:101090000FB6F894DEBF0FBECDBFCF91DF911F9189
:1010A0000F91FF90EF90DF90CF90BF90AF909F9007
:1010B0008F9008958F929F92AF92BF92CF92DF92BE
:1010C000EF92FF920F931F93DF93CF93CDB7DEB7CD
:1010D000A0970FB6F894DEBF0FBECDBF9B01AC0149
:1010E00097FD65C069017A0121153105410551055A
:1010F00009F443C0AA24BB244E010894811C911C0E
:1011000084010A0D1B1DC701B6012AE030E040E052
:1011100050E00E946A09F80160830894A11CB11C88
:10112000C701B6012AE030E040E050E00E946A09C1
:10113000C901DA016C017D01C114D104E104F1049B
:10114000F9F6A114B10401F1F5013197E80DF91D8B
:1011500080818A3078F4982F905D8091C00085FF5F
:10116000FCCF9093C6003197EC17FD0769F08081A2
:101170008A3088F3982F995CF0CF8091C00085FF6A
:10118000FCCF80E38093C600A0960FB6F894DEBF34
:101190000FBECDBFCF91DF911F910F91FF90EF90C8
:1011A000DF90CF90BF90AF909F908F9008958091E7
:1011B000C00085FFFCCF8DE28093C600509540951E
:1011C000309521953F4F4F4F5F4F8CCFE1E8F0E0D6
:1011D00080818B7F808380818D7F8083808181600F
:1011E0008083EFE6F0E08081816080830895209124
:1011F0005E0130915F014091600150916101609109
:10120000850080918400A90133272227280F311DF2
:10121000411D511D962F80E0AA2797FDA095BA2F5A
:10122000280F391F4A1F5B1F84E056954795379555
:1012300027958A95D1F7B901CA0108951F920F9297
:101240000FB60F9211248F939F93AF93BF9380910A
:101250005E0190915F01A0916001B09161010196E2
:10126000A11DB11D80935E0190935F01A093600169
:10127000B0936101BF91AF919F918F910F900FBE7D
:101280000F901F901895AA1BBB1B51E107C0AA1F06
:10129000BB1FA617B70710F0A61BB70B881F991F17
:1012A0005A95A9F780959095BC01CD01089597FBBB
:1012B000092E07260AD077FD04D0E5DF06D00020EE
:1012C0001AF4709561957F4F0895F6F79095819582
:1012D0009F4F0895A1E21A2EAA1BBB1BFD010DC052
:1012E000AA1FBB1FEE1FFF1FA217B307E407F507D6
:1012F00020F0A21BB30BE40BF50B661F771F881FB2
:10130000991F1A9469F760957095809590959B0147
:0C131000AC01BD01CF010895F894FFCF9F
:10131C00476F0064656D617272616765007C0009DE
:10132C00006400FFFF0000FFFF0000FFFF00004013
:04133C009C88130076
:00000001FF
