:100000000C94D4000C94F1000C94F1000C94330285
:100010000C945E020C94F1000C94F1000C94F1002D
:100020000C94F1000C94F1000C94F1000C94F1008C
:100030000C94F1000C94F1000C94F1000C94F1007C
:100040000C94F1000C94F1000C9456060C94F10001
:100050000C94F1000C94F1000C94F1000C94F1005C
:100060000C948C050C94F100D204D904E004E7044C
:10007000EE04F504FC040305BF04BF04BF04BF0481
:10008000BF04BF04BF04BF040A050D05BF04BF04BD
:10009000BF04BF04BF04BF04BF04BF04BF04BF0448
:1000A000BF04BF04BF04BF0410051305BF04BF0491
:1000B000BF04BF04BF04BF04BF04BF04BF04BF0428
:1000C000BF04BF04BF04BF0416051F052805310582
:1000D0003A0543054C055305BF04BF04BF04BF04E4
:1000E000BF04BF04BF04BF045C056E057105740541
:1000F000BF04BF04BF04BF04BF04BF04BF04BF04E8
:10010000BF04BF04BF04BF04BF04BF04BF04BF04D7
:10011000BF04BF04BF04BF04BF04BF04BF04BF04C7
:10012000BF04BF04BF04BF04BF04BF04BF04BF04B7
:10013000BF04BF04BF04BF04BF04BF04BF04BF04A7
:10014000BF04BF04BF04BF04BF04BF04BF04BF0497
:10015000BF04BF04BF04BF04BF04BF04BF04BF0487
:10016000BF04BF04BF04BF04BF04BF04BF04BF0477
:10017000BF04BF04BF04BF04BF04BF04BF04BF0467
:10018000BF04BF04BF048405BF04BF04BF04BF0491
:10019000BF04BF04BF04BF04BF04BF04BF04BF0447
:1001A000BF04BF04BF04CE0411241FBECFEFD8E0AC
:1001B000DEBFCDBF11E0A0E0B1E0ECE3F1E102C0B1
:1001C00005900D92A630B107D9F711E0A6E0B1E095
:1001D00001C01D92AA34B107E1F70E94F3000C940C
:1001E0009C080C9400001F938EEF64E041E029E02E
:1001F00030E00E94F7070E94DF010E94820481E53F
:100200000E94720181E063ED70E04BE253E02FEF5A
:1002100031E00E942E0882E063ED70E04BE253E093
:100220002FEF31E00E942E088DE088BD87BD14E6D7
:1002300010C00E946203609103017091040182E08A
:100240000E942808609101017091020181E00E94E2
:10025000280880911001882361F3181674F4813006
:1002600049F0823041F75A9A5C981093B400109389
:10027000B300E1CF0E948902DECF8F3FE1F61092FA
:10028000B4001092B300D7CFEAE7F0E08081807825
:100290008083089590E08F70907082309105E1F036
:1002A000833091054CF084309105C9F0843091057C
:1002B0005CF43B9843980895009719F43898409857
:1002C0000895019731F008950597E9F73D9845980D
:1002D00008953998419808953A98429808953C981D
:1002E000449808950F931F93182F80917A00806887
:1002F00080937A0080917A00876080937A00012F42
:100300000F70802F0E944A01812F90E080739070BF
:1003100095958795959587959595879595958795C5
:100320008130910519F183309105D1F0892B29F4A1
:1003300080917C008F7380937C0080917C00802B67
:1003400080937C0080917C00006F082300937C00E8
:1003500080917A00877F80937A001F910F91089592
:1003600080917C00806C80937C00E7CF80917C0042
:100370008F7780937C0080917C00806480937C00E8
:10038000DCCF1F93182F0E944A0180917C00812BA3
:1003900080937C0080917A00806480937A008091C1
:1003A0007A0086FDFCCF2091780040917900942F4F
:1003B00080E030E0282B392BC9011F910895569A0F
:1003C00084B58F7B84BD84B5806884BD559A84B51F
:1003D0008F7E84BD84B5806284BD84B5816084BD18
:1003E00084B5826084BD85B5877F85BD85B5856010
:1003F00085BD239AE0EBF0E080818F7B8083808154
:1004000080688083539A80818F7E80838081806220
:100410008083808181608083808182608083E1EB42
:10042000F0E08081877F8083808181608083529A21
:10043000549AECE6F0E0808184608083EBE6F0E0A3
:10044000808182608083E8E6F0E080818260808342
:1004500080818160808385B1866085B988B18C6038
:1004600088B9789408951F920F920FB60F921124B5
:100470008F939F93199B0BC01A9910C080911A01FA
:1004800090911B01019790931B0180931A019F91FA
:100490008F910F900FBE0F901F90189580911A01A9
:1004A00090911B01019690931B0180931A019F91DB
:1004B0008F910F900FBE0F901F9018951F920F9263
:1004C0000FB60F9211248F939F93329B0BC03399D9
:1004D00010C080911C0190911D01019690931D0107
:1004E00080931C019F918F910F900FBE0F901F90D2
:1004F000189580911C0190911D01019790931D0109
:1005000080931C019F918F910F900FBE0F901F90B1
:100510001895AF92BF92CF92DF92EF92FF920F9316
:100520001F9380910A0190910B0120911C01309141
:100530001D01821B930B5C01CC24B7FCC094DC2C06
:1005400080911C0190911D0120911A0130911B0195
:10055000821B930B7C010027F7FC0095102FD7FC22
:10056000A7C05A9817FD9AC05C9A80E00E94C1010A
:100570008C52914008F43CC080910C0190910D0187
:100580008436910508F484C00894E108F108010953
:10059000110981E00E94C1018C529140D0F18091FB
:1005A0000E0190910F018436910508F46BC00894F8
:1005B000A108B108C108D10880E00E94C101845F90
:1005C0009140C0F110E081E00E94C101845F914040
:1005D00008F442C080E08093B4001093B3001F91F0
:1005E0000F91FF90EF90DF90CF90BF90AF90089564
:1005F00080910C0190910D018436910550F210927A
:100600000D0110920C0181E00E94C1018C529140B9
:1006100030F680910E0190910F018436910560F2C1
:1006200010920F0110920E0180E00E94C101845FC0
:10063000914040F6D801C7018D3221E0920720E0B9
:10064000A20720E0B207C4F4182F81E00E94C10184
:10065000845F914008F0BECFD601C5018D3221E004
:10066000920720E0A20720E0B2070CF4B4CF8CE29E
:1006700091E0A0E0B0E0AFCF8CE291E0A0E0B0E08C
:10068000182FE3CF019690930F0180930E0194CF22
:10069000019690930D0180930C017BCF10950095EE
:1006A000F094E094E11CF11C011D111D5C985DCFDC
:1006B000D094C094B094A094A11CB11CC11CD11CB6
:1006C0005A9A50CFAF92BF92CF92DF92EF92FF92A1
:1006D0000F931F93809106019091070120911C01B7
:1006E00030911D01821B930B5C01CC24B7FCC0949C
:1006F000DC2C809108019091090120911A01309120
:100700001B01821B930B7C010027F7FC0095102F27
:10071000D7FCA7C05A9817FD9AC05C9A80E00E9447
:10072000C1018C52914008F43CC080910C01909121
:100730000D018436910508F484C00894E108F1089D
:100740000109110981E00E94C1018C529140D0F150
:1007500080910E0190910F018436910508F46BC0D1
:100760000894A108B108C108D10880E00E94C10125
:10077000845F9140C0F110E081E00E94C101845F7C
:10078000914008F442C080E08093B4001093B3001D
:100790001F910F91FF90EF90DF90CF90BF90AF909F
:1007A000089580910C0190910D018436910550F2CD
:1007B00010920D0110920C0181E00E94C1018C5237
:1007C000914030F680910E0190910F018436910591
:1007D00060F210920F0110920E0180E00E94C101A0
:1007E000845F914040F6D801C7018D3221E0920725
:1007F00020E0A20720E0B207C4F4182F81E00E9495
:10080000C101845F914008F0BECFD601C5018D3291
:1008100021E0920720E0A20720E0B2070CF4B4CF59
:100820008CE291E0A0E0B0E0AFCF8CE291E0A0E0FC
:10083000B0E0182FE3CF019690930F0180930E0143
:1008400094CF019690930D0180930C017BCF10956E
:100850000095F094E094E11CF11C011D111D5C98C1
:100860005DCFD094C094B094A094A11CB11CC11CC5
:10087000D11C5A9A50CF8093BA0084E08093BC0078
:100880001092120108958091120108958091120131
:10089000882319F4809100010895FFCFAC01809165
:1008A00012018823F1F460931301662371F020E0B4
:1008B00030E0F901EB5EFE4FDA01A20FB31F8C911D
:1008C00080832F5F3F4F2617A0F31092110188EF0E
:1008D0008093000185EC8093BC0081E0809312013D
:1008E0000895FFCF80911201882359F410921101CD
:1008F00088EF8093000185EC8093BC001092120178
:100900000895FFCF81E28093BA0084E08093BC0019
:100910001092120178940E9472040895AC018091A3
:1009200012018823D9F48091110180FF15C066233C
:1009300081F020E030E0FA01E20FF31FD901AB5E55
:10094000BE4F8C9180832F5F3F4F2617A0F380917D
:1009500011018D7F8093110181700895FFCF8091E7
:100960001201882361F48091110181FD11C08091F1
:100970001E0190E0FC017197E03AF10508F008953E
:10098000EC5CFF4FEE0FFF1F0590F491E02D0994F2
:100990008EE191E061E00E948E04E9CF82E08093D5
:1009A0001001089583ED90E090930201809301017E
:1009B00008958BE293E090930401809303010895DE
:1009C00085E591E09093020180930101089583EB06
:1009D00092E0909304018093030108958BE293E0E9
:1009E0009093020180930101089583ED90E090932C
:1009F00004018093030108958FEF91E09093020129
:100A00008093010108958FEF91E09093040180930A
:100A1000030108958DE087BD08958DE088BD089598
:100A20008AE187BD08958AE188BD089580ED97E049
:100A300090930701809306011092100108958AECAB
:100A400098E0909309018093080110921001089595
:100A500088E893E1909307018093060110921001BA
:100A6000089582E894E1909309018093080110921F
:100A70001001089580E197E29093070180930601A9
:100A80001092100108958AE098E2909309018093F2
:100A900008011092100108951092070110920601AA
:100AA0001092100108958AEF90E0909309018093CD
:100AB000080110921001089580ED97E090930701CE
:100AC00080930601909309018093080190930B0194
:100AD00080930A0181E080931001089588E893E1F2
:100AE000EDCF80E197E2EACF109207011092060164
:100AF000109209011092080110920B0110920A0144
:100B000081E08093100108958FEF8093100110927F
:100B1000B4001092B30008951F920F920FB60F9277
:100B200011242F933F934F935F936F937F938F93F2
:100B30009F93AF93BF93EF93FF938091B900803958
:100B400009F479C0813928F1883A09F455C0893A05
:100B500090F5883941F1803A21F08091B900809375
:100B6000000185EC8093BC00109212010E94AF043A
:100B7000FF91EF91BF91AF919F918F917F916F9175
:100B80005F914F913F912F910F900FBE0F901F904B
:100B90001895803709F440C0813730F1803809F466
:100BA0004AC08838D1F68091B9008093000180E96D
:100BB0008093BC00DBCF803C11F1883CA1F3883BE3
:100BC00061F690911401E92FF0E0EB5EFE4F808119
:100BD0008093BB009F5F9093140185EC8093BC00D1
:100BE00081E080931201C2CF8823E9F2803609F0B8
:100BF000B4CF8091110113C010921401E2CF9091F3
:100C0000140180911301981709F0A7CF8091110169
:100C1000816080931101A5CF809111018460826071
:100C2000809311011092140185EC8093BC0081E047
:100C3000809312019BCF809114019091BB00E82F0B
:100C4000F0E0EB5EFE4F90838F5F80931401809104
:100C5000110181608093110185EC8093BC0081E0DB
:100C60008093120183CFE1ECF0E080818F77808365
:100C700080818F7E80838081886080830895E1EC0D
:100C8000F0E08081877F80838081806180838081A4
:100C900080688083109223010895982F8091C0006E
:100CA00085FFFCCF9093C600892F08951F920F9265
:100CB0000FB60F9211248F939F93EF93FF93809120
:100CC00023019091C600E4E2F1E0E80FF11D90836A
:100CD0008F5F80932301FF91EF919F918F910F90F0
:100CE0000FBE0F901F901895EF92FF920F931F93D6
:100CF0007B018C0122E030E040E050E00E945F0880
:100D0000205C3D4B404F5F4FCA01B901A8019701DC
:100D10000E945F08C901DA010197A109B109292FD1
:100D20003A2F4B2F552747FD5A950196A11DB11D0E
:100D30002093C50081508093C400109223010E942B
:100D40003F061F910F91FF90EF900895DF92EF9271
:100D5000FF920F931F93E82E162FF42E022FD32EFF
:100D60000E9433068091C00085FFFCCF8FEF8093F7
:100D7000C6008091C00085FFFCCF8FEF8093C60036
:100D80008091C00085FFFCCFE092C600412F4E5FEE
:100D90008091C00085FFFCCF4093C6008091C000C9
:100DA00085FFFCCFF092C6004F0D4E0D112389F048
:100DB000802F9D2D9C01F90190818091C00085FFBD
:100DC000FCCF9093C600490F31968E2F801B811760
:100DD00098F38091C00085FFFCCF40954093C600FA
:100DE0000E943F061F910F91FF90EF90DF900895B2
:100DF000DF93CF930F92CDB7DEB7198260E0898180
:100E00008B3010F5E62FF0E040E050E006C04F5F79
:100E10005F4F83E04A3E5807B9F089812091230152
:100E2000DF01A80FB11D30E0A217B30781F389815C
:100E3000882309F041C0EC5DFE4F80818F3FE1F1D6
:100E40006F5F89818B30F0F240E04F5F8981815084
:100E50008983842F860FA82FB0E0AC5DBE4F5C91D4
:100E60005F3F99F3423008F040E011963C911197B2
:100E70003E5F898183134E5F332351F0FD0120E0F3
:100E800090E08191280F9F5F9317D8F32F3FC1F017
:100E90004C5F8FEF9FEF90934501809344019093B7
:100EA0004901809348019093470180934601842F24
:100EB0000F90CF91DF91089589818F5F89839FCFB4
:100EC000442339F7509344011092450112968C91B6
:100ED00012978093480110924901353059F036300D
:100EE000A1F01092470110924601842F0F90CF91EC
:100EF000DF91089513968C918093460110924701DB
:100F0000842F0F90CF91DF91089514969C911497A0
:100F100080E013962C91820F911D9093470180934E
:100F20004601842F0F90CF91DF91089560E041E05A
:100F300020E030E00E94A6060E94F806089560E0D6
:100F400046E020E030E00E94A6060E94F8060895E0
:100F500060E045E020E030E00E94A6060E94F8062E
:100F60000895DF93CF9300D0CDB7DEB769834A836E
:100F700062E042E09E012F5F3F4F0E94A6060E9462
:100F8000F8060F900F90CF91DF9108950F931F9364
:100F9000DF93CF93CDB7DEB7582F0DB71EB7842F91
:100FA00090E00196ADB7BEB7A81BB90B0FB6F89489
:100FB000BEBF0FBEADBFEDB7FEB7319611966C93B5
:100FC0002183423008F032834F5F852F642F44E045
:100FD0009F010E94A6060E94F8060FB6F8941EBF55
:100FE0000FBE0DBFCF91DF911F910F9108950F9309
:100FF0001F93DF93CF93CDB7DEB7582F0DB71EB732
:10100000842F90E00196ADB7BEB7A81BB90B0FB601
:10101000F894BEBF0FBEADBFEDB7FEB731961196C7
:101020006C932183423008F032834F5F852F642F09
:1010300043E09F010E94A6060E94F8060FB6F894AE
:101040001EBF0FBE0DBFCF91DF911F910F9108956D
:101050009B016EE142E00E94F7070895AF92BF92B4
:10106000CF92DF92EF92FF921F93182F7B016A01BC
:10107000590168E141E021E030E00E94F707812F4B
:1010800066E042E097010E94F707812F68E042E0A6
:1010900096010E94F707812F60E242E095010E94CD
:1010A000F70760E47DE083E090E00E9474061F9102
:1010B000FF90EF90DF90CF90BF90AF90089597FB97
:1010C000092E05260ED057FD04D014D00AD0001CDE
:1010D00038F450954095309521953F4F4F4F5F4FD5
:1010E0000895F6F790958095709561957F4F8F4F95
:1010F0009F4F0895A1E21A2EAA1BBB1BFD010DC034
:10110000AA1FBB1FEE1FFF1FA217B307E407F507B7
:1011100020F0A21BB30BE40BF50B661F771F881F93
:10112000991F1A9469F760957095809590959B0129
:0C113000AC01BD01CF010895F894FFCF81
:06113C00F8FF01FF0100B5
:00000001FF
