:100000000C94D4000C94F1000C94F1000C94330285
:100010000C945E020C94F1000C94F1000C94F1002D
:100020000C94F1000C94F1000C94F1000C94F1008C
:100030000C94F1000C94F1000C94F1000C94F1007C
:100040000C94F1000C94F1000C9476060C94F100E1
:100050000C94F1000C94F1000C94F1000C94F1005C
:100060000C94AC050C94F100F204F90400050705AA
:100070000E0515051C052305DF04DF04DF04DF047E
:10008000DF04DF04DF04DF042A052D05DF04DF04BD
:10009000DF04DF04DF04DF04DF04DF04DF04DF0448
:1000A000DF04DF04DF04DF0430053305DF04DF0491
:1000B000DF04DF04DF04DF04DF04DF04DF04DF0428
:1000C000DF04DF04DF04DF0436053F054805510582
:1000D0005A0563056C057305DF04DF04DF04DF04E4
:1000E000DF04DF04DF04DF047C058E059105940541
:1000F000DF04DF04DF04DF04DF04DF04DF04DF04E8
:10010000DF04DF04DF04DF04DF04DF04DF04DF04D7
:10011000DF04DF04DF04DF04DF04DF04DF04DF04C7
:10012000DF04DF04DF04DF04DF04DF04DF04DF04B7
:10013000DF04DF04DF04DF04DF04DF04DF04DF04A7
:10014000DF04DF04DF04DF04DF04DF04DF04DF0497
:10015000DF04DF04DF04DF04DF04DF04DF04DF0487
:10016000DF04DF04DF04DF04DF04DF04DF04DF0477
:10017000DF04DF04DF04DF04DF04DF04DF04DF0467
:10018000DF04DF04DF04A405DF04DF04DF04DF0491
:10019000DF04DF04DF04DF04DF04DF04DF04DF0447
:1001A000DF04DF04DF04EE0411241FBECFEFD8E02C
:1001B000DEBFCDBF12E0A0E0B1E0EAE7F8E102C0A7
:1001C00005900D92AE30B107D9F712E0AEE0B2E083
:1001D00001C01D92A235B107E1F70E94F3000C9413
:1001E0003B0C0C9400001F938EEF64E041E029E08B
:1001F00030E00E9417080E94DF010E94A20481E5FE
:100200000E94720181E063ED70E04BE253E02FEF5A
:1002100031E00E944E0882E063ED70E04BE253E073
:100220002FEF31E00E944E088DE088BD87BD14E6B7
:1002300010C00E947203609103017091040182E07A
:100240000E944808609101017091020181E00E94C2
:10025000480880911802882361F3181674F48130DD
:1002600049F0823041F75A9A5C981093B400109389
:10027000B300E1CF0E948902DECF8F3FE1F61092FA
:10028000B4001092B300D7CFEAE7F0E08081807825
:100290008083089590E08F70907082309105E1F036
:1002A000833091054CF084309105C9F0843091057C
:1002B0005CF43B9843980895009719F43898409857
:1002C0000895019731F008950597E9F73D9845980D
:1002D00008953998419808953A98429808953C981D
:1002E000449808950F931F93182F80917A00806887
:1002F00080937A0080917A00876080937A00012F42
:100300000F70802F0E944A01812F90E080739070BF
:1003100095958795959587959595879595958795C5
:100320008130910519F183309105D1F0892B29F4A1
:1003300080917C008F7380937C0080917C00802B67
:1003400080937C0080917C00006F082300937C00E8
:1003500080917A00877F80937A001F910F91089592
:1003600080917C00806C80937C00E7CF80917C0042
:100370008F7780937C0080917C00806480937C00E8
:10038000DCCF1F93182F0E944A0180917C00812BA3
:1003900080937C0080917A00806480937A008091C1
:1003A0007A0086FDFCCF2091780040917900942F4F
:1003B00080E030E0282B392BC9011F910895569A0F
:1003C00084B58F7B84BD84B5806884BD559A84B51F
:1003D0008F7E84BD84B5806284BD84B5816084BD18
:1003E00084B5826084BD85B5877F85BD85B5856010
:1003F00085BD239AE0EBF0E080818F7B8083808154
:1004000080688083539A80818F7E80838081806220
:100410008083808181608083808182608083E1EB42
:10042000F0E08081877F8083808181608083529A21
:10043000549AECE6F0E0808184608083EBE6F0E0A3
:10044000808182608083E8E6F0E080818260808342
:1004500080818160808385B1866085B988B18C6038
:1004600088B9789408951F920F920FB60F921124B5
:100470008F939F93199B0BC01A9910C080912202F1
:1004800090912302019790932302809322029F91DF
:100490008F910F900FBE0F901F90189580912202A0
:1004A00090912302019690932302809322029F91C0
:1004B0008F910F900FBE0F901F9018951F920F9263
:1004C0000FB60F9211248F939F93329B0BC03399D9
:1004D00010C08091240290912502019690932502EC
:1004E000809324029F918F910F900FBE0F901F90C9
:1004F00018958091240290912502019790932502EE
:10050000809324029F918F910F900FBE0F901F90A8
:100510001895AF92BF92CF92DF92EF92FF920F9316
:100520001F93609112027091130220912402309166
:100530002502621B730B882777FD8095982F0E94F8
:1005400079092DEC3CEC4CE45EE30E947F080E94AC
:10055000D7095B016C016091240270912502209102
:10056000220230912302621B730B882777FD80954E
:10057000982F0E9479092DEC3CEC4CE45EE30E943C
:100580007F080E94D7097B018C01D7FCA1C05A9833
:1005900017FD94C05C9A80E00E94C1018C5291408A
:1005A00008F43CC0809114029091150284369105A4
:1005B00008F47EC00894E108F1080109110981E0FE
:1005C0000E94C1018C529140D0F18091160290910D
:1005D00017028436910508F465C00894A108B10893
:1005E000C108D10880E00E94C101845F9140C0F140
:1005F00010E081E00E94C101845F914008F43FC097
:1006000060E06093B4001093B3001F910F91FF90CE
:10061000EF90DF90CF90BF90AF900895809114023B
:10062000909115028436910550F2109215021092A5
:10063000140281E00E94C1018C52914030F68091F9
:100640001602909117028436910560F210921702FB
:100650001092160280E00E94C101845F914040F632
:10066000C801B7016739710581059105ACF4162FF2
:1006700081E00E94C101845F914008F0C1CFC601B2
:10068000B50167397105810591050CF4BACF66E9AA
:1006900070E080E090E0B5CF66E970E080E090E047
:1006A000162FE6CF019690931702809316029ACFE9
:1006B0000196909315028093140281CF10950095B6
:1006C000F094E094E11CF11C011D111D5C9863CFB6
:1006D000D094C094B094A094A11CB11CC11CD11C96
:1006E0005A9A56CFAF92BF92CF92DF92EF92FF927B
:1006F0000F931F9360910E0270910F0220912402BC
:1007000030912502621B730B882777FD8095982F07
:100710000E9479092DEC3CEC4CE45EE30E947F08DA
:100720000E94D7095B016C01609110027091110267
:100730002091220230912302621B730B882777FDE0
:100740008095982F0E9479092DEC3CEC4CE45EE3F7
:100750000E947F080E94D7097B018C01D7FCA1C0B1
:100760005A9817FD94C05C9A80E00E94C1018C5297
:10077000914008F43CC08091140290911502843697
:10078000910508F47EC00894E108F10801091109F7
:1007900081E00E94C1018C529140D0F180911602FB
:1007A000909117028436910508F465C00894A10859
:1007B000B108C108D10880E00E94C101845F914066
:1007C000C0F110E081E00E94C101845F914008F413
:1007D0003FC060E06093B4001093B3001F910F918D
:1007E000FF90EF90DF90CF90BF90AF9008958091F1
:1007F0001402909115028436910550F21092150260
:100800001092140281E00E94C1018C52914030F696
:1008100080911602909117028436910560F2109231
:1008200017021092160280E00E94C101845F91407D
:1008300040F6C801B7016739710581059105ACF42F
:10084000162F81E00E94C101845F914008F0C1CF62
:10085000C601B50167397105810591050CF4BACF60
:1008600066E970E080E090E0B5CF66E970E080E096
:1008700090E0162FE6CF0196909317028093160210
:100880009ACF0196909315028093140281CF109510
:100890000095F094E094E11CF11C011D111D5C9881
:1008A00063CFD094C094B094A094A11CB11CC11C7F
:1008B000D11C5A9A56CF8093BA0084E08093BC0032
:1008C00010921A02089580911A02089580911A02D6
:1008D000882319F4809100010895FFCFAC01809125
:1008E0001A028823F1F460931B02662371F020E062
:1008F00030E0F901E35EFD4FDA01A20FB31F8C91E6
:1009000080832F5F3F4F2617A0F31092190288EFC4
:100910008093000185EC8093BC0081E080931A02F3
:100920000895FFCF80911A02882359F4109219027A
:1009300088EF8093000185EC8093BC0010921A022E
:100940000895FFCF81E28093BA0084E08093BC00D9
:1009500010921A0278940E9492040895AC0180913A
:100960001A028823D9F48091190280FF15C06623EA
:1009700081F020E030E0FA01E20FF31FD901A35E1D
:10098000BD4F8C9180832F5F3F4F2617A0F380913E
:1009900019028D7F8093190281700895FFCF809195
:1009A0001A02882361F48091190281FD11C080919F
:1009B000260290E0FC017197E03AF10508F00895F5
:1009C000EC5CFF4FEE0FFF1F0590F491E02D0994B2
:1009D00086E292E061E00E94AE04E9CF82E080937B
:1009E0001802089583ED90E0909302018093010135
:1009F00008958BE293E0909304018093030108959E
:100A000085E591E09093020180930101089583EBC5
:100A100092E0909304018093030108958BE293E0A8
:100A20009093020180930101089583ED90E09093EB
:100A300004018093030108958FEF91E090930201E8
:100A40008093010108958FEF91E0909304018093CA
:100A5000030108958DE087BD08958DE088BD089558
:100A60008AE187BD08958AE188BD089580ED97E009
:100A700090930F0280930E021092180208958AEC50
:100A800098E090931102809310021092180208953A
:100A900088E893E190930F0280930E02109218025F
:100AA000089582E894E190931102809310021092CD
:100AB0001802089580E197E290930F0280930E024E
:100AC0001092180208958AE098E2909311028093A0
:100AD000100210921802089510920F0210920E0246
:100AE0001092180208958AEF90E09093110280937B
:100AF000100210921802089580ED97E090930F0273
:100B000080930E029093110280931002909313022F
:100B10008093120281E080931802089588E893E19F
:100B2000EDCF80E197E2EACF10920F0210920E0211
:100B300010921102109210021092130210921202DF
:100B400081E08093180208958FEF8093180210922D
:100B5000B4001092B30008951F920F920FB60F9237
:100B600011242F933F934F935F936F937F938F93B2
:100B70009F93AF93BF93EF93FF938091B900803918
:100B800009F479C0813928F1883A09F455C0893AC5
:100B900090F5883941F1803A21F08091B900809335
:100BA000000185EC8093BC0010921A020E94CF04D1
:100BB000FF91EF91BF91AF919F918F917F916F9135
:100BC0005F914F913F912F910F900FBE0F901F900B
:100BD0001895803709F440C0813730F1803809F426
:100BE0004AC08838D1F68091B9008093000180E92D
:100BF0008093BC00DBCF803C11F1883CA1F3883BA3
:100C000061F690911C02E92FF0E0E35EFD4F8081D8
:100C10008093BB009F5F90931C0285EC8093BC0087
:100C200081E080931A02C2CF8823E9F2803609F06E
:100C3000B4CF8091190213C010921C02E2CF9091A0
:100C40001C0280911B02981709F0A7CF809119020E
:100C5000816080931902A5CF80911902846082601F
:100C60008093190210921C0285EC8093BC0081E0F5
:100C700080931A029BCF80911C029091BB00E82FB9
:100C8000F0E0E35EFD4F90838F5F80931C028091C4
:100C9000190281608093190285EC8093BC0081E089
:100CA00080931A0283CFE1ECF0E080818F7780831C
:100CB00080818F7E80838081886080830895E1ECCD
:100CC000F0E08081877F8083808180618083808164
:100CD0008068808310922B020895982F8091C00025
:100CE00085FFFCCF9093C600892F08951F920F9225
:100CF0000FB60F9211248F939F93EF93FF938091E0
:100D00002B029091C600ECE2F2E0E80FF11D908317
:100D10008F5F80932B02FF91EF919F918F910F90A6
:100D20000FBE0F901F901895EF92FF920F931F9395
:100D30007B018C0122E030E040E050E00E94C70BD4
:100D4000205C3D4B404F5F4FCA01B901A80197019C
:100D50000E94C70BC901DA010197A109B109292F26
:100D60003A2F4B2F552747FD5A950196A11DB11DCE
:100D70002093C50081508093C40010922B020E94E2
:100D80005F061F910F91FF90EF900895DF92EF9211
:100D9000FF920F931F93E82E162FF42E022FD32EBF
:100DA0000E9453068091C00085FFFCCF8FEF809397
:100DB000C6008091C00085FFFCCF8FEF8093C600F6
:100DC0008091C00085FFFCCFE092C600412F4E5FAE
:100DD0008091C00085FFFCCF4093C6008091C00089
:100DE00085FFFCCFF092C6004F0D4E0D112389F008
:100DF000802F9D2D9C01F90190818091C00085FF7D
:100E0000FCCF9093C600490F31968E2F801B81171F
:100E100098F38091C00085FFFCCF40954093C600B9
:100E20000E945F061F910F91FF90EF90DF90089551
:100E3000DF93CF930F92CDB7DEB7198260E089813F
:100E40008B3010F5E62FF0E040E050E006C04F5F39
:100E50005F4F83E04A3E5807B9F0898120912B0209
:100E6000DF01A80FB11D30E0A217B30781F389811C
:100E7000882309F041C0E45DFD4F80818F3FE1F19F
:100E80006F5F89818B30F0F240E04F5F8981815044
:100E90008983842F860FA82FB0E0A45DBD4F5C919D
:100EA0005F3F99F3423008F040E011963C91119772
:100EB0003E5F898183134E5F332351F0FD0120E0B3
:100EC00090E08191280F9F5F9317D8F32F3FC1F0D7
:100ED0004C5F8FEF9FEF90934D0280934C02909365
:100EE00051028093500290934F0280934E02842FC0
:100EF0000F90CF91DF91089589818F5F89839FCF74
:100F0000442339F750934C0210924D0212968C9163
:100F100012978093500210925102353059F03630BA
:100F2000A1F010924F0210924E02842F0F90CF9199
:100F3000DF91089513968C9180934E0210924F0288
:100F4000842F0F90CF91DF91089514969C91149760
:100F500080E013962C91820F911D90934F02809305
:100F60004E02842F0F90CF91DF91089560E041E011
:100F700020E030E00E94C6060E941807089560E055
:100F800046E020E030E00E94C6060E94180708955F
:100F900060E045E020E030E00E94C6060E941807AD
:100FA0000895DF93CF9300D0CDB7DEB769834A832E
:100FB00062E042E09E012F5F3F4F0E94C6060E9402
:100FC00018070F900F90CF91DF9108950F931F9303
:100FD000DF93CF93CDB7DEB7582F0DB71EB7842F51
:100FE00090E00196ADB7BEB7A81BB90B0FB6F89449
:100FF000BEBF0FBEADBFEDB7FEB7319611966C9375
:101000002183423008F032834F5F852F642F44E004
:101010009F010E94C6060E9418070FB6F8941EBFD3
:101020000FBE0DBFCF91DF911F910F9108950F93C8
:101030001F93DF93CF93CDB7DEB7582F0DB71EB7F1
:10104000842F90E00196ADB7BEB7A81BB90B0FB6C1
:10105000F894BEBF0FBEADBFEDB7FEB73196119687
:101060006C932183423008F032834F5F852F642FC9
:1010700043E09F010E94C6060E9418070FB6F8942D
:101080001EBF0FBE0DBFCF91DF911F910F9108952D
:101090009B016EE142E00E9417080895AF92BF9253
:1010A000CF92DF92EF92FF921F93182F7B016A017C
:1010B000590168E141E021E030E00E941708812FEA
:1010C00066E042E097010E941708812F68E042E045
:1010D00096010E941708812F60E242E095010E946C
:1010E000170860E47DE083E090E00E9494061F9181
:1010F000FF90EF90DF90CF90BF90AF900895A0E267
:10110000B0E0E5E8F8E00C94040C69837A838B8303
:101110009C832D833E834F835887CE010196BE0169
:10112000675F7F4F0E944F0BCE010596BE016F5E39
:101130007F4F0E944F0B9985923088F089898230C9
:10114000C8F0943019F4823051F404C0843029F48A
:10115000923081F485E091E0C6C0923049F420E0FD
:101160009A858A89981321E02A87CE010996BBC007
:10117000823049F420E09A858A89981321E02A8BED
:10118000CE014196B0C02D843E844F8458886D882E
:101190007E888F88988CEE24FF248701AA24BB24A4
:1011A000650140E050E060E070E0E0E0F0E0C101A7
:1011B00081709070892BE9F0E60CF71C081D191D51
:1011C0009A01AB012A0D3B1D4C1D5D1D80E090E096
:1011D000A0E0B0E0E614F7040805190520F481E06A
:1011E00090E0A0E0B0E0BA01A901480F591F6A1FC2
:1011F0007B1FAA0CBB1CCC1CDD1C97FE08C081E029
:1012000090E0A0E0B0E0A82AB92ACA2ADB2A3196E9
:10121000E032F10549F0660C771C881C991C569445
:10122000479437942794C3CFFA85EA892B893C8960
:101230008B859C85280F391F2E5F3F4F17C0CA0131
:1012400081709070892B61F016950795F794E7945B
:1012500080E090E0A0E0B0E8E82AF92A0A2B1B2BF6
:1012600076956795579547952F5F3F4F77FDE7CF69
:101270000CC0440F551F661F771F17FD4160EE0C11
:10128000FF1C001F111F21503040403090E05907D3
:1012900090E0690790E4790760F32B8F3C8FDB01C6
:1012A000CA018F779070A070B07080349105A1054D
:1012B000B10561F447FD0AC0E114F104010511050F
:1012C00029F0405C5F4F6F4F7F4F40781A8EFE17BA
:1012D00011F081E08A8F4D8F5E8F6F8F78A383E04E
:1012E000898FCE0149960E947A0AA096E2E10C9479
:1012F000200CA8E0B0E0EFE7F9E00C940D0C9B01A6
:10130000AC0183E08983DA01C9018827B7FD8395A1
:101310009927AA27BB27B82E21153105410551056C
:1013200019F482E089833AC08823A9F0203080E054
:10133000380780E0480780E8580729F460E070E04B
:1013400080E09FEC30C0EE24FF248701E21AF30A0C
:10135000040B150B02C079018A018EE1C82ED12C35
:10136000DC82CB82ED82FE820F831887C801B70131
:101370000E942B0A01971816190684F4082E04C03F
:10138000EE0CFF1C001F111F0A94D2F7ED82FE82A3
:101390000F831887C81AD90ADC82CB82BA82CE01A1
:1013A00001960E947A0A2896E9E00C94290CACE098
:1013B000B0E0EDEDF9E00C94140C69837A838B8333
:1013C0009C83CE010196BE016B5F7F4F0E944F0B45
:1013D0008D81823061F1823050F1843021F48E8130
:1013E000882351F12EC02F81388537FD20C06E81B2
:1013F0002F3131051CF06623F9F023C08EE190E017
:10140000821B930B29853A854B855C8504C05695D4
:101410004795379527958A95D2F76623B1F0509571
:101420004095309521953F4F4F4F5F4F0EC020E0C4
:1014300030E040E050E009C02FEF3FEF4FEF5FE7B3
:1014400004C020E030E040E050E8B901CA012C9629
:10145000E2E00C94300CEF92FF920F931F937B010C
:101460008C0180E0E81680E0F80681E0080780E063
:10147000180788F48FEFE816F1040105110531F023
:1014800028F088E090E0A0E0B0E017C080E090E0B5
:10149000A0E0B0E012C080E0E81680E0F80680E04E
:1014A000080781E0180728F088E190E0A0E0B0E0AC
:1014B00004C080E190E0A0E0B0E020E230E040E055
:1014C00050E0281B390B4A0B5B0B04C0169507959F
:1014D000F794E7948A95D2F7F701E35FFE4F808196
:1014E000281B310941095109C9011F910F91FF9032
:1014F000EF900895DF92EF92FF920F931F93FC01FC
:10150000E480F58006811781D1808081823048F4A3
:1015100080E090E0A0E1B0E0E82AF92A0A2B1B2B3A
:10152000A5C0843009F49FC0823021F4EE24FF244A
:10153000870105C0E114F1040105110519F4E0E08B
:10154000F0E096C0628173819FEF623879070CF0FA
:101550005BC022E83FEF261B370B2A3131052CF008
:1015600020E030E040E050E02AC0B801A701022EA0
:1015700004C076956795579547950A94D2F781E010
:1015800090E0A0E0B0E004C0880F991FAA1FBB1F25
:101590002A95D2F70197A109B1098E219F21A02395
:1015A000B1230097A105B10521F081E090E0A0E012
:1015B000B0E09A01AB01282B392B4A2B5B2BDA01C7
:1015C000C9018F779070A070B07080349105A1052B
:1015D000B10539F427FF09C0205C3F4F4F4F5F4FE3
:1015E00004C0215C3F4F4F4F5F4FE0E0F0E0203000
:1015F000A0E03A07A0E04A07A0E45A0710F0E1E0B3
:10160000F0E079018A0127C06038710564F5FB01BB
:10161000E158FF4FD801C7018F779070A070B0706C
:1016200080349105A105B10539F4E7FE0DC080E4D1
:1016300090E0A0E0B0E004C08FE390E0A0E0B0E074
:10164000E80EF91E0A1F1B1F17FF05C01695079508
:10165000F794E794319687E016950795F794E79409
:101660008A95D1F705C0EE24FF248701EFEFF0E063
:101670006E2F679566276795902F9F77D794DD2407
:10168000D7948E2F8695492F462B582F5D29B70169
:10169000CA011F910F91FF90EF90DF900895FC0118
:1016A000DB01408151812281622F6F7770E0221F20
:1016B0002227221F9381892F880F822B282F30E029
:1016C000991F9927991F11969C9311972115310500
:1016D000A9F5411551056105710511F482E037C086
:1016E00082E89FEF13969C938E9312979A01AB0119
:1016F00067E0220F331F441F551F6A95D1F783E01F
:101700008C930DC0220F331F441F551F12968D91CD
:101710009C911397019713969C938E931297203068
:1017200080E0380780E0480780E4580758F31496B3
:101730002D933D934D935C93179708952F3F31055B
:1017400079F4411551056105710519F484E08C9314
:10175000089564FF03C081E08C9312C01C9210C0F6
:101760002F57304013963C932E93129783E08C931F
:1017700087E0440F551F661F771F8A95D1F7706465
:1017800014964D935D936D937C931797089597FBF3
:10179000092E05260ED057FD04D014D00AD0001C07
:1017A00038F450954095309521953F4F4F4F5F4FFE
:1017B0000895F6F790958095709561957F4F8F4FBE
:1017C0009F4F0895A1E21A2EAA1BBB1BFD010DC05D
:1017D000AA1FBB1FEE1FFF1FA217B307E407F507E1
:1017E00020F0A21BB30BE40BF50B661F771F881FBD
:1017F000991F1A9469F760957095809590959B0153
:10180000AC01BD01CF0108952F923F924F925F929C
:101810006F927F928F929F92AF92BF92CF92DF9200
:10182000EF92FF920F931F93CF93DF93CDB7DEB765
:10183000CA1BDB0B0FB6F894DEBF0FBECDBF0994F9
:101840002A88398848885F846E847D848C849B8450
:10185000AA84B984C884DF80EE80FD800C811B815E
:10186000AA81B981CE0FD11D0FB6F894DEBF0FBE8D
:0A187000CDBFED010895F894FFCFFD
:10187A00F8FF01FF01000000000000000000010263
:10188A000203030303040404040404040405050511
:10189A0005050505050505050505050505060606EB
:1018AA0006060606060606060606060606060606CE
:1018BA0006060606060606060606060606070707BB
:1018CA00070707070707070707070707070707079E
:1018DA00070707070707070707070707070707078E
:1018EA00070707070707070707070707070707077E
:1018FA00070707070707070707070707070808086B
:10190A00080808080808080808080808080808084D
:10191A00080808080808080808080808080808083D
:10192A00080808080808080808080808080808082D
:10193A00080808080808080808080808080808081D
:10194A00080808080808080808080808080808080D
:10195A0008080808080808080808080808080808FD
:10196A0008080808080808080808080808080808ED
:0E197A000808080808080808080808080800F7
:00000001FF
