:100000000C9434000C9451000C9451000C94510049
:100010000C9451000C9451000C9451000C9451001C
:100020000C9451000C9451000C9451000C9451000C
:100030000C9451000C9451000C9451000C945100FC
:100040000C9451000C9451000C9470000C945100CD
:100050000C9451000C9451000C9451000C945100DC
:100060000C945A030C94510011241FBECFEFD8E01A
:10007000DEBFCDBF11E0A0E0B1E0E4E5F8E002C0F2
:1000800005900D92A230B107D9F711E0A2E0B1E0DE
:1000900001C01D92AC33B107E1F70E9453000C94EC
:1000A00028040C940000CF93DF930E94D1020E9499
:1000B000F20024EF31E0C4EFD1E02115310549F41D
:1000C00080E40E944502909333018093320124EF33
:1000D00031E0CE010197F1F721503040D1F7F0CF58
:1000E0001F920F920FB60F9211248F938091C6002A
:1000F000813541F08B3431F08F910F900FBE0F900E
:100100001F901895809300018F910F900FBE0F9054
:100110001F901895CF93DF93482FEB01E8A1F9A129
:10012000CF01019660E270E00E9415049C018AA153
:100130009BA18217930729F0EC0FFD1F408339A381
:1001400028A3DF91CF9108958091220190912301FE
:1001500080962091240130912501821B930B60E24F
:1001600070E00E94150408954091240150912501EA
:1001700080912201909123018417950789F0FA015B
:10018000EE5FFE4F2081CA01019660E270E00E949E
:100190001504909325018093240130E0C90108954E
:1001A0002FEF3FEFC90108958091C00087FFFCCF7A
:1001B0008091C60008958091C00085FFFCCF8DE03E
:1001C0008093C6008091C00085FFFCCF8AE08093B9
:1001D000C6000895982F8091C00085FFFCCF9093B2
:1001E000C60008951092C50080E48093C400E1EC3D
:1001F000F0E080818068808380818061808380815D
:10020000886080838EE08093C20078940895EF9296
:10021000FF920F931F93DF93CF93CDB7DEB7A097D5
:100220000FB6F894DEBF0FBECDBF9C010097B1F1B1
:1002300000E010E07E010894E11CF11CF701E00FE2
:10024000F11FC9016AE070E00E94010480830F5F22
:100250001F4FC9016AE070E00E9401049B01611513
:10026000710561F70115110501F1F8013197EE0DE6
:10027000FF1D80818A3078F4982F905D8091C000B6
:1002800085FFFCCF9093C6003197EC17FD0769F00E
:1002900080818A3088F3982F995CF0CF8091C000DC
:1002A00085FFFCCF80E38093C600A0960FB6F8943C
:1002B000DEBF0FBECDBFCF91DF911F910F91FF9099
:1002C000EF900895EF92FF920F931F93DF93CF93D8
:1002D000CDB7DEB7A0970FB6F894DEBF0FBECDBF87
:1002E0009C010097B1F100E010E07E010894E11C50
:1002F000F11CF701E00FF11FC9016AE070E00E94F4
:10030000010480830F5F1F4FC9016AE070E00E9403
:1003100001049B016115710561F70115110501F1DA
:10032000F8013197EE0DFF1D80818A3078F4982F07
:10033000905D8091C00085FFFCCF9093C6003197FF
:10034000EC17FD0769F080818A3088F3982F995C5B
:10035000F0CF8091C00085FFFCCF80E38093C60082
:100360008091C00085FFFCCF8DE08093C600809116
:10037000C00085FFFCCF8AE08093C600A0960FB630
:10038000F894DEBF0FBECDBFCF91DF911F910F91CB
:10039000FF90EF900895EF92FF920F931F93DF93DA
:1003A000CF93CDB7DEB7A0970FB6F894DEBF0FBEE0
:1003B000CDBF9C0197FD5BC02115310509F44BC0F1
:1003C00000E010E07E010894E11CF11CF701E00F51
:1003D000F11FC9016AE070E00E94010480830F5F91
:1003E0001F4FC9016AE070E00E9401049B01611582
:1003F000710561F70115110599F0F8013197EE0DBE
:10040000FF1D80818A30F0F5982F905D8091C000AB
:1004100085FFFCCF9093C6003197EC17FD0789F755
:100420008091C00085FFFCCF8DE08093C600809155
:10043000C00085FFFCCF8AE08093C600A0960FB66F
:10044000F894DEBF0FBECDBFCF91DF911F910F910A
:10045000FF90EF9008958091C00085FFFCCF80E36E
:100460008093C6008091C00085FFDACFDDCF8091F8
:10047000C00085FFFCCF8DE28093C60030952195AA
:100480003F4F9ACF982F995CC1CF482F8AB1842BC8
:100490008AB98BB1942F909589238BB98DE08A9579
:1004A000F1F78BB1842B8BB981E28A95F1F78BB18F
:1004B00089238BB98AB198239AB920E030E006C02D
:1004C00085E02C3D380789F02F5F3F4F89B18423A9
:1004D0004817B1F302C02F5F3F4F89B184234817FB
:1004E00041F085E02C3D3807B1F720E030E0C9014C
:1004F000089589B184234817D1F72F5F3F4F89B101
:1005000084234817A1F72F5F3F4F89B184234817F1
:10051000A1F3EDCF8093BA0084E08093BC001092E9
:10052000270108958091270108958091270188234C
:1005300019F4809101010895FFCFAC01809127014A
:100540008823F1F460932801662371F020E030E005
:10055000F901E65DFE4FDA01A20FB31F8C91808393
:100560002F5F3F4F2617A0F31092260188EF80934C
:10057000010185EC8093BC0081E080932701089500
:10058000FFCF80912701882359F41092260188EF2C
:100590008093010185EC8093BC001092270108959F
:1005A000FFCF81E48093BA0084E08093BC00109276
:1005B000270178940E94C1020895AC01809127011F
:1005C0008823D9F48091260180FF15C0662381F02D
:1005D00020E030E0FA01E20FF31FD901A65DBE4F23
:1005E0008C9180832F5F3F4F2617A0F380912601C7
:1005F0008D7F8093260181700895FFCF8091270120
:10060000882389F48091260181FD0EC080913401F8
:10061000803599F08131D9F0803359F1813409F472
:100620003FC0823499F1089584E391E061E00E9433
:10063000DD0280913401803569F789B1807880933B
:10064000340184E391E061E00E949D02089580916D
:100650003201909133018093340180913201909165
:1006600033019093350184E391E062E00E949D02A2
:100670000895809100018093340184E391E061E06A
:100680000E949D0280E580930001089583B18270ED
:100690008093340184E391E061E00E949D0208951B
:1006A00083B184708093340184E391E061E00E941F
:1006B0009D0208951F920F920FB60F9211242F934F
:1006C0003F934F935F936F937F938F939F93AF93DA
:1006D000BF93EF93FF938091B900803909F479C0FB
:1006E000813928F1883A09F455C0893A90F588395A
:1006F00041F1803A21F08091B9008093010185ECAD
:100700008093BC00109227010E94FE02FF91EF919E
:10071000BF91AF919F918F917F916F915F914F9119
:100720003F912F910F900FBE0F901F90189580371B
:1007300009F440C0813730F1803809F44AC0883864
:10074000D1F68091B9008093010180E98093BC00CB
:10075000DBCF803C11F1883CA1F3883B61F690919E
:100760002901E92FF0E0E65DFE4F80818093BB0018
:100770009F5F9093290185EC8093BC0081E080937A
:100780002701C2CF8823E9F2803609F0B4CF8091E7
:10079000260113C010922901E2CF90912901809186
:1007A0002801981709F0A7CF8091260181608093D6
:1007B0002601A5CF80912601846082608093260166
:1007C0001092290185EC8093BC0081E08093270181
:1007D0009BCF809129019091BB00E82FF0E0E65D6E
:1007E000FE4F90838F5F8093290180912601816065
:1007F0008093260185EC8093BC0081E080932701E3
:1008000083CFAA1BBB1B51E107C0AA1FBB1FA617A2
:10081000B70710F0A61BB70B881F991F5A95A9F7A9
:1008200080959095BC01CD01089597FB092E072670
:100830000AD077FD04D0E5DF06D000201AF47095C9
:1008400061957F4F0895F6F7909581959F4F089594
:04085000F894FFCF4A
:0208540050F85A
:00000001FF
